:1000000000000120B11A0000D91A0000DB1A00001C
:10001000DD1A0000DF1A0000E11A000000000000F5
:10002000000000000000000000000000E31A0000D3
:10003000E51A000000000000E71A0000E91A0000BD
:10004000CD110000EB1A0000E1160000EB1A0000D1
:10005000EB1A0000EB1A0000EB1A0000EB1A00008C
:10006000EB1A0000EB1A0000EB1A0000EB1A00007C
:10007000EB1A0000EB1A0000EB1A0000EB1A00006C
:10008000EB1A0000B50A0000EB1A0000EB1A0000A2
:10009000550B0000EB1A0000EB1A0000EB1A0000F1
:1000A000EB1A0000EB1A0000EB1A0000EB1A00003C
:1000B000EB1A0000EB1A0000000000000000000036
:1000C000EB1A0000EB1A0000EB1A0000EB1A00001C
:1000D000EB1A0000EB1A0000EB1A00000000000011
:1000E0000000000000000000000000000000000010
:1000F0000000000000000000000000000000000000
:1001000000000000000000000000000000000000EF
:1001100000000000000000000000000000000000DF
:1001200000000000000000000000000000000000CF
:1001300000000000000000000000000000000000BF
:1001400000000000000000000000000000000000AF
:10015000000000000000000000000000000000009F
:10016000000000000000000000000000000000008F
:10017000000000000000000000000000000000007F
:10018000000000000000000000000000000000006F
:10019000000000000000000000000000000000005F
:1001A000000000000000000000000000000000004F
:1001B000000000000000000000000000000000003F
:1001C000000000000000000000000000000000002F
:1001D000000000000000000000000000000000001F
:1001E000000000000000000000000000000000000F
:1001F00000000000000000000000000000000000FF
:1002000010B5054C237833B9044B13B10448AFF350
:1002100000800123237010BDE801002000000000D1
:10022000182A00000C4B43B10C480D4910B5AFF330
:1002300000800C48036823B910BD0A48036833B92D
:100240007047094B002BF7D0BDE810401847064B0C
:10025000002BF5D0184700BF00000000182A00004E
:10026000EC010020E401002000000000154B002BF1
:1002700008BF134B9D46A3F5803A00218B460F46DD
:100280001348144A121A00F063F80F4B002B00D0E9
:1002900098470E4B002B00D0984700200021040007
:1002A0000D000D48002802D00C48AFF3008000F08C
:1002B0002BF82000290001F08DFB00F011F800BFA1
:1002C0000000080000000120000000000000000005
:1002D000E80100208C080020000000000000000061
:1002E00008B5074B044613B10021AFF30080054B5E
:1002F0001868836A03B19847204600F031F800BFC0
:1003000000000000D427000070B50D4E0D4CA41B5A
:10031000A4100025A54209D10B4E0C4C02F04EFA58
:10032000A41BA4100025A54205D170BD56F82530A8
:1003300098470135EEE756F8253098470135F2E742
:10034000DC010020DC010020DC010020E0010020B5
:1003500002440346934200D1704703F8011BF9E7BA
:10036000FEE700BF0378012B04BF014A13707047FA
:10037000060200202DE9F04FC7B01C46994800291D
:1003800014BF0A23002316460D46009301F09CF982
:10039000002840F0EB80002C00F0EC8006AB834698
:1003A0000293519B539A9E18202501960099029A18
:1003B0000B465B4404933133D318039302EB0B07D2
:1003C00000295DD07B4203F003038B4228BF0B461C
:1003D000062900F2FA800A463946012A01F8015B33
:1003E00000F0F180022A7D7007F1020100F0EB803D
:1003F000032ABD7007F1030100F0E580042AFD70B7
:1004000007F1040100F0DF80062A3D7107F10501C4
:1004100040F0E1807D71B91D1346009890422DD0C7
:10042000009EA6EB020CACF1040006F1FF3A800836
:10043000AAEB020A0130BAF1020F4FEA800E13D97B
:100440005A44029E4FF0203A012806EB020B46F870
:1004500002A005D00228CBF804A001D0CBF808A058
:10046000E6457144734409D0009E0D705A1CB24297
:1004700004D202339E424D7000D98D70009B1F4400
:10048000039B059707F1330907F1030A264603F199
:1004900001084C46019FDDF844910DE00AF8035C29
:1004A0000AF8025C0AF8015C0AF1030AA24508F89E
:1004B000015C08F101082FD0B742EFD9B1457CD9D2
:1004C000509B13F806B00AF8015C4FEA2B105FFA54
:1004D00080FE09280BF00F00D4BF0EF1300E0EF194
:1004E000370E092894BF303037300AF803EC0AF889
:1004F000020C01F09FFC58440AF1030A407810F006
:10050000970F08BF4FF02E0BA24508F801BC06F16B
:10051000010608F10108CFD1049A039901970D2330
:10052000059F0B743446029E0A2302F143004B746C
:1005300002F1470A2C4987F830500422304401F078
:1005400099FC52463146294801F094FC5FFA8AF240
:100550002649244801F00EF8834638B9214801F0B5
:10056000B3F818B9019B9C42FFF420AF204647B076
:10057000BDE8F08F8DB306AF04221B4902973846C1
:1005800001F078FC2B681A4A4FF4807107A801F03B
:100590007DFCB0F1000BE9DB0BF1040B07EB0B0565
:1005A000304601F0A7FCC2280246314628BFC222CD
:1005B0002846934401F05EFCF3E6A6EB0900529B4B
:1005C00013F800B07FE7134627E71A463946002B99
:1005D0003FF426AF00E705231FE706AD0295A346CB
:1005E000DEE700BF64000020F827000008020020BA
:1005F000002800002DE9F0416A48C6B00C4690463C
:100600001F4601F061F8D0B9ECB106AD042266498D
:10061000284601F02FFC2368644A4FF4807107A834
:1006200001F034FC00280ADB4C9B061D062B00F26F
:10063000B780DFE803F0136871377C445500002071
:1006400046B0BDE8F0814C9B062B00F2A480DFE8A9
:1006500003F00496918C827D87004C9E404601F009
:1006600049FC8319FF2B044640F28E80002CE6DB08
:100670003444261DB6F5807FE1D806AD2819F4B2C2
:100680000422494901F0F6FB32462946484801F068
:10069000F1FB22464649434800F06CFFB0FA80F077
:1006A0004009CDE7A819C6F58071BA687C683B6837
:1006B00001920094424601F0E9FB0446D6E7A819EE
:1006C000C6F580713C69FA683B6803947C68BD6834
:1006D00002928DE83000424601F0D8FB0446C5E79F
:1006E000A819C6F580717A693C693B680492FA687A
:1006F00003947C68BD6802928DE83000424601F0A8
:10070000C5FB0446B2E7A819C6F580713B684246AE
:1007100001F0BCFB0446A9E7A819C6F580717A6808
:100720003B680092424601F0B1FB04469EE7A819DF
:10073000C6F580717C68BD68FA683B6802928DE8F6
:100740003000424601F0A2FB04468FE74FF480716F
:1007500006A80026B6E74FF4807106A80026E9E750
:100760004FF4807106A80026BDE74FF4807106A8FB
:1007700000269AE74FF4807106A80026CFE74FF4D1
:10078000807106A80026C1E706AB414698192246AB
:1007900001F070FB6AE7042406AD264628466FE7A1
:1007A000002465E764000020F8270000002800000E
:1007B00008020020F0B5154F3B7889B01BB1144BEF
:1007C0001B7883421ED0134D06460FCD6C460FC4D6
:1007D00095E80F00142584E80F0013230E480095B8
:1007E000019300F043FE002E0C4A0B4818BF002274
:1007F000694600F04FFD18B9054A012316703B7099
:1008000009B0F0BD002009B0F0BD00BF0502002016
:1008100004020020D82700006400002065030000C7
:1008200000487047F5050000004870477503000058
:1008300038B50020FFF7BEFF044668B9FFF7F0FFA8
:100840000546FFF7F1FF054BFF22C3F810541C606B
:100850005C60C3F814049A60204638BD0803002089
:100860000120FFF7A7BF00BF2DE9F041224C07464A
:1008700000200E46A56800F097FCA2686368D4F8D3
:10088000008013440133A3EB0803012B1BD8ABB149
:100890000121002361F301036FF38203052161F35A
:1008A000C50308EA0202154904EB82026FF38913BB
:1008B00008F1010561F39F232560D3600020BDE8A6
:1008C000F04100F079BC08F101030020236000F042
:1008D00073FC0122002362F301036FF3820305EA34
:1008E000080567F3C50304EB85046FF3891366F30A
:1008F0009F23E360BDE8F081080300200828000082
:100900002DE9F0434F4E716832688A428BB078D03F
:10091000B76807EA0105023506EB85020131546824
:1009200014F003030ED1C4F3891303EB94530B4467
:1009300007EA0305023506EB8502591C546814F0DA
:100940000303F0D0022B2CD0C4F38313C4F39522FD
:10095000002B73D00DF1100C604601EB030E07EA7B
:10096000010506EB850501F10108F045E96840F84D
:10097000041B4146F3D10093C4F3C2006346D6F88A
:1009800010440021A04748B1C6F804803068B0EB9D
:10099000080018BF01200BB0BDE8F083D6F8048032
:1009A000F4E701F1010827EA080001EA0703013032
:1009B00006EB830380004FEA94598145DA68C4F35B
:1009C000891322D988B307EA0801C7B20331A9EB1A
:1009D0000700DFF874E006EB8101C0B28DE88240C9
:1009E0000390D6F814740021C4F3C200B8474845F8
:1009F00020D006EB850560F38F146C60D6F8048078
:100A0000C4E700200BB0BDE8F08307EA080003301C
:100A100006EB800000218DE8010203910291D6F8D7
:100A20001474C4F3C200B847E1E786465FFA89F759
:100A30000549D3E7033008EB9008A5E788460DF198
:100A4000100C98E7080300201403002000B585B0BF
:100A500000230390194601AA44F20100ADF80430C6
:100A6000029300F003F805B05DF804FB08B50D49EA
:100A70000120FFF7F9FEFFF7F3FEFFF741FF002823
:100A8000FBD109490320FFF7EFFEBFF34F8F074962
:100A9000074BCA6802F4E0621343CB60BFF34F8F89
:100AA00000BFFDE71C2800003428000000ED00E036
:100AB0000400FA05F8B5204A204B0025C2F8405141
:100AC000C2F84451C2F84851C2F84C51C2F8005122
:100AD000C2F804511B6813B31949D2F804450A68D7
:100AE000A41A1A6824F07F44A2422F4609D8197C20
:100AF000DE69A41A154499B91EB133461A68A24298
:100B0000F5D91049104A0B7812789A420DD00F4946
:100B10000F4A41F823504FF48013C2F80031F8BD5A
:100B20001F745A6998699047E6E7531CDBB2022BA1
:100B300008BF00230B70EAE70010014040080020C6
:100B40003C08002039080020380800203008002028
:100B500000E100E02DE9F04F7D4A7E4913780978E5
:100B600099428BB03BD00133DBB27B490491022B1D
:100B70000D687A49069108BF00231370784A084629
:100B800052F82310D0F80090049A6B18002423F038
:100B90007F434E46AC461360204627462546AEB1FD
:100BA00033688B4200F2ED81F4683760C91A18444B
:100BB000F3693CB10CEB000E2EF07F42F561B4609E
:100BC000726035461E460124002EE9D12A46B14600
:100BD000002C40F0DB8201230793069B07E05F4B6C
:100BE0005D4A0492D3F80090069300220792D3F84E
:100BF00000A05C4BDFF874C11B780593049B186858
:100C000000234946CE460893D146099303934FF0FB
:100C1000010B17469A46804637B37C68BD683B4651
:100C2000FF695148A4EB080222F07F42824258D863
:100C300015441D60002283F810B05A609A60DA6192
:100C400000296ED00868854263D90C4603E010681D
:100C5000A8424FD21446E2692D1A002AF7D11D602E
:100C6000DA61E361002FD8D10297CDF804E09CF857
:100C700001709CF800200025974200F08680104605
:100C800000EB40000CEBC000541C9CF80230E2B2B8
:100C900004798CF80020934204BF8CF800500022A5
:100CA000022C83684ED0032C40D0012CE4D11E7C52
:100CB000002EE1D1C4685C6005699D604269DA601C
:100CC00082699A61059A029FDDF804E0002AA8D0A3
:100CD0003446A4EB080224485E6022F07F42824240
:100CE000A6D9A8EB040424F07F44AC4208D22D1B03
:100CF0001D609FE7401B10601D60DA61E361B1E792
:100D0000002583F810B01D605D609D60DD6141B11C
:100D10000868451B0D609946D9614FF0010A1946D4
:100D20007AE7994619464FF0010A75E70029A3D0E2
:100D30000022CB690A741946002BFAD199464FF06C
:100D4000010A94E7D9B19942084615D110E100BFD4
:100D500038080020390800203C0800204008002006
:100D6000300800202C080020FEFF7F002007002014
:100D7000A34200F0E8802046C469002CF8D10E465A
:100D800097421D7431467FF47AAF4046D046CA463A
:100D9000DDF80490B8F1000F40F0F481099B002BBE
:100DA00040F0ED81089B1BB17B4B9DF814201A701D
:100DB000039B13B9494500F04C81002900F04E8196
:100DC000764C049BD4F804051B68754D0F68297890
:100DD000C21A22F07F420332002951D17149DFF853
:100DE000C8C1DFF8C8E14FF48036C4F84463C4F8E2
:100DF00004634FF40036C1F880610E60012626605E
:100E00002F21DCF8004000BF00BF00BF00BF00BFC3
:100E100000BF00BF00BF74452FD000BF00BF00BFA0
:100E200000BF00BF00BF00BF00BF00BF00BF00BFCA
:100E300000BF00BF00BF00BF00BF00BF00BF00BFBA
:100E400000BF00BF00BF00BF00BF00BF00BF00BFAA
:100E500000BF00BF00BF00BF00BF00BF00BF00BF9A
:100E600000BF00BF00BF00BF00BF00BF00BF00BF8A
:100E700000BF00BF00BF00BF00BF0139C3D12E704B
:100E800097422CBFDB199B18444923F07F43C1F8DC
:100E90004035D1F80425121A1B1A22F07F4223F0A4
:100EA0007F4303329A4248D9D1F804353E4AC1F80B
:100EB000403512683D492F2300BF00BF00BF00BF6F
:100EC00000BF00BF00BF00BF8A422FD000BF00BFDD
:100ED00000BF00BF00BF00BF00BF00BF00BF00BF1A
:100EE00000BF00BF00BF00BF00BF00BF00BF00BF0A
:100EF00000BF00BF00BF00BF00BF00BF00BF00BFFA
:100F000000BF00BF00BF00BF00BF00BF00BF00BFE9
:100F100000BF00BF00BF00BF00BF00BF00BF00BFD9
:100F200000BF00BF00BF00BF00BF00BF013BC3D177
:100F30001C4B4FF40032C3F80021174A00231370F2
:100F40000BB0BDE8F08F834212D00E46DC69D3F8B7
:100F500000E0C46134B12268724422609CF8002031
:100F60009CF801700398B14218BF0120039007E775
:100F7000D1F81C90B9F1000F1AD04E464FF0010A7B
:100F8000E4E72A46B146002C60D15B1AC9F800306C
:100F900001230793069B2AE62C080020001001403D
:100FA0002D08002000E100E06C0000200024F40087
:100FB000784E794CC6F808B0784E4FF02F0E366850
:100FC00000BF00BF00BF00BF00BF00BF00BF00BF29
:100FD000A6422FD000BF00BF00BF00BF00BF00BFB0
:100FE00000BF00BF00BF00BF00BF00BF00BF00BF09
:100FF00000BF00BF00BF00BF00BF00BF00BF00BFF9
:1010000000BF00BF00BF00BF00BF00BF00BF00BFE8
:1010100000BF00BF00BF00BF00BF00BF00BF00BFD8
:1010200000BF00BF00BF00BF00BF00BF00BF00BFC8
:1010300000BF00BFBEF1010EC2D1012634460896A2
:10104000C8464E4605940994A2467FE70698066076
:101050009BE7079B002B3FF470AFAEE64D4A504B29
:101060004E4E4D4C4FF480304FF400370125C3F8FD
:101070008070C2F848032F23C2F808035560306817
:101080001E4600BF00BF00BF00BF00BF00BF00BFC3
:1010900000BFA0422FD000BF00BF00BF00BF00BFF5
:1010A00000BF00BF00BF00BF00BF00BF00BF00BF48
:1010B00000BF00BF00BF00BF00BF00BF00BF00BF38
:1010C00000BF00BF00BF00BF00BF00BF00BF00BF28
:1010D00000BF00BF00BF00BF00BF00BF00BF00BF18
:1010E00000BF00BF00BF00BF00BF00BF00BF00BF08
:1010F00000BF00BF00BF013EC3D19560049A1160DC
:1011000000BF00BF00BF00BF00BF00BF00BF00BFE7
:10111000A0422FD000BF00BF00BF00BF00BF00BF74
:1011200000BF00BF00BF00BF00BF00BF00BF00BFC7
:1011300000BF00BF00BF00BF00BF00BF00BF00BFB7
:1011400000BF00BF00BF00BF00BF00BF00BF00BFA7
:1011500000BF00BF00BF00BF00BF00BF00BF00BF97
:1011600000BF00BF00BF00BF00BF00BF00BF00BF87
:1011700000BF00BF013BC3D10A4B1970DDE6049BE1
:1011800018600FE6069BC3F800A007E6069B1E60EA
:1011900021E500BF001001400024F4006C00002095
:1011A00000E100E02D08002072B6024A1368013306
:1011B0001360704744080020034A1368013B136022
:1011C00003B962B6704700BF4408002010B51A4B3F
:1011D0001A6882B0A2B100221A601B6800934FF017
:1011E00080430122154C0099C3F80823A36862705C
:1011F00033B10CCB0020A2609847A368002BF8D134
:101200000F4B1A68AAB100221A601B6801934FF0B5
:1012100080430222094C0199C3F808232369012263
:10122000A27033B10CCB0120226198472369002BB7
:10123000F8D102B010BD00BF0001004048080020F6
:1012400004010040002810B418DB00F1604303F5EE
:1012500061434901C9B283F80013C3B24009800059
:1012600000F1604000F5614003F01F02012393404C
:10127000C0F8803103605DF8044B7047C3B2044A84
:1012800003F00F0449012244C9B21176E6E700BF1A
:10129000FCEC00E0F0B50479714E6401331987B0BD
:1012A000DD7E15B1082007B0F0BD4D7F1D770D68BC
:1012B0006B1C0BD04FF0A0470123AB40C7F808359B
:1012C0000B6803F5E073032547F823504B685F1C58
:1012D00006D003F5E0734FF0A045002745F82370D2
:1012E000037906EB43131B7F002B4CD003688D69F9
:1012F000C3F824550F7D4B7D05683B43C5F86C351D
:1013000003680F684D68C3F80C75C3F814550B7D5E
:10131000012B00F09A80331905465A600B6933514E
:10132000EAB10379097F026806EB43131B7F002BA8
:1013300065D1C2F81C31D2F81C712A680097009F51
:10134000C2F84431D2F844212B6846480192019AF0
:10135000C3F80403286840F30730FFF773FF2B79C5
:101360002A6806EB43131B7F002B44D00823C2F8E6
:101370000035344400200123E376E0752076A07523
:10138000A07607B0F0BD05688F69C5F8247591F89F
:1013900014E04D7D076845EA0E05C7F86C550568F1
:1013A000D1F800E04F68C5F81475C5F80CE50D7D5F
:1013B000012DB0D18D686F1C05D005F5E0754FF09B
:1013C000A04747F82530CB685D1C0DD001254FF0B4
:1013D000A04705FA03F3C7F80835CB6803F5E073B7
:1013E000032547F82350CB6805688F68C5F8083592
:1013F000C5F810758FE70423C2F80035B9E700235C
:10140000C2F81031D2F810712A680297029FC2F810
:101410002031D2F820712A680397039FC2F8243143
:10142000D2F824712A680497049FC2F84431D2F894
:1014300044212B6805920C48059AC3F804032868D8
:1014400040F30730FFF7FEFE89E78B685D1CBAD0DA
:1014500003F5E0734FF0A045002745F82370B2E78D
:101460005C0800208000020010030200F0B5027941
:101470003C4B046852019918097F00296CD0002167
:10148000C4F8001599184968B1B1017903EB41110D
:10149000097F002963D10168334CC1F80843016812
:1014A000324E090B4CB26409203401F01F010125B2
:1014B00005FA01F146F824100179076803EB4111A0
:1014C000D7F80C65097FD7F814554FF0FF3EA9B344
:1014D000D7F80815D7F81045C7F80CE5C7F814E594
:1014E0000068C0F808E5C0F810E5771C06D006F5DE
:1014F000E0764FF0A040022740F826706E1C06D020
:1015000005F5E0754FF0A040022640F82560651C07
:1015100006D004F5E0744FF0A040022540F82450B6
:10152000481C06D001F5E0714FF0A040022440F8BD
:10153000214013440022DA765A60F0BDD7F808152E
:10154000D7F81045C7F814E5C7F80CE50068C0F8EF
:1015500008E5C0F810E5C8E7C4F8001592E701688F
:10156000034C9AE75C0800208402020000E100E0DE
:1015700010030200F0B50379524C5B01E51887B007
:101580002D7F3DB101F06045B5F1005F02D0102024
:1015900007B0F0BD23449E7D16B1112007B0F0BD09
:1015A0009A7599609E8205796D016219137F13BB4C
:1015B0000168C1F81C31D1F81C610168049601264C
:1015C000049F8E600168D2F808E0C1F81C31D1F8A0
:1015D0001C310593059B968A938A5768B6B20133EE
:1015E0001EF806609BB29382C1F81C65002F2FD0B5
:1015F000002007B0F0BD03689168C3F82061D3F8FC
:10160000207103680197019FC3F85861D3F85861AE
:1016100003680296967D029FC3F84415C3F8486597
:101620000368012199605368002BE1D1036801E050
:10163000002945D1D3F82021D3F85811002AF7D03A
:10164000002914BF0F2000202C440023A3759FE71E
:10165000967D938A9BB29E4202F1140122D90168C1
:1016600004E0938A9BB2B3F5807F03D0D1F81C319C
:10167000002BF6D0938A9BB2B3F5807FE9D0C1F8F6
:101680001C71D1F81C310393039BB2F814C0938AE8
:101690001FFA8CFC01331EF80CC09BB29382C1F878
:1016A0001CC5D6E70B889BB2B3F5807F08D00268D3
:1016B000D2F81C31002BFBD00123D3600020C3E7FC
:1016C0000F20C1E75C0800200279044B03EB4213B2
:1016D000987D003018BF0120704700BF5C080020D3
:1016E00070B5A54C237F8EB0002B73D1A34AD2F8DE
:1016F0000413890546D4A14BD3F80423520704D51B
:10170000D3F80821002A40F0C9809C4BD3F81C2153
:10171000BAB1A28AA17D92B28A424FF00002C3F808
:101720001C2180F0A880D3F81C210692069AA18A79
:10173000A28AA06889B20132415C92B2A282C3F847
:101740001C158E4BD3F84421D2B10022C3F844219A
:10175000D3F84411A27E04910499002A40F08880B5
:10176000E37D6BB10023617EE268E37501238DF8B0
:1017700030108DF828300B9294E80A000AA8984798
:101780000EB070BDD2F824110029B4D0C2F82431B3
:10179000D2F82411A37E07914FF401710798C2F883
:1017A00008130BB901235360744A02238DF82830C3
:1017B000D2F88034C2F88034E07DE2680D930023D3
:1017C0008DF83000E375237621680B9263680AA8D0
:1017D00098479AE7694BD3F82421002A40F0928079
:1017E000D3F8101161B1C3F81021D3F8101103918F
:1017F0000399D3F83C15E07DC9B2884200F0A4807B
:101800005E4BD3F84421B2B10022C3F84421D3F88F
:101810004401E17D0190019869B1D3F83C35E1685C
:101820008DF8303001230B918DF82830E27594E863
:101830000A000AA89847514BD3F82021002A9FD0CC
:101840000022C3F82021D3F82001A17D0090009848
:10185000002995D0D3F84C15A3688DF830100B9360
:101860008DF82820A27594E80A000AA8984787E70F
:1018700001221A6074E7D3F81C310593059B0029F7
:101880003FF45FAFA3688DF830100B938DF82820DC
:10189000A27594E80A000AA8984752E7E27D002A58
:1018A0006ED00022C3F80821D3F808210892089AC4
:1018B000E168627ED3F818358B54637EE27D013394
:1018C000DBB26376637E93427FF41FAF237E002BEF
:1018D0006CD1A37E13B9294B01225A60274AE068D4
:1018E00063684FF40171C2F80813627E8DF83020EE
:1018F000002501220B902168E5758DF828200AA8A3
:10190000984702E70022C3F82421D3F8241102915A
:1019100002218DF828100299D3F88014C3F880149E
:101920000D91D3F83C15E368E27522768DF83010FE
:101930000B93216863680AA89847104BD3F8442199
:10194000002A3FF478AF5FE7217E11B3D3F800623D
:10195000E568E17526F02006C3F8006226698DF877
:10196000300001238DF82830227621680B95E6603F
:1019700063680AA8984743E75C08002000200040FD
:10198000C3F80821D3F8081109910999D3F818353B
:1019900098E7E268E17501238DF830008DF8283072
:1019A0000B9294E80A000AA8984729E7607EE56848
:1019B0002169E375012200238DF83000E160237670
:1019C00063760B958DF8282094E80A000AA89847BA
:1019D0009BE600BFF8B50020FEF72AFF08B1FFF72D
:1019E00035F82C492C4F2D4E2D4D2E4C0320FEF753
:1019F0003BFF31460320FEF737FF29460220FEF762
:101A000033FF21460120FEF72FFFFEF779FF002864
:101A1000FBD1254B3A68254900BF00BF00BF00BF7E
:101A200000BF00BF00BF00BF8A422FD000BF00BF71
:101A300000BF00BF00BF00BF00BF00BF00BF00BFAE
:101A400000BF00BF00BF00BF00BF00BF00BF00BF9E
:101A500000BF00BF00BF00BF00BF00BF00BF00BF8E
:101A600000BF00BF00BF00BF00BF00BF00BF00BF7E
:101A700000BF00BF00BF00BF00BF00BF00BF00BF6E
:101A800000BF00BF00BF00BF00BF00BF013BC3D10C
:101A9000AFE700BF542800006C0000207028000051
:101AA00090280000B428000040420F000024F400F9
:101AB0000649074A074B9B1A03DD043BC858D05020
:101AC000FBDC00F013F8FEF7D1FB0000242A000035
:101AD00000000020E8010020FEE7FEE7FEE7FEE749
:101AE000FEE7FEE7FEE7FEE7FEE7FEE7F0B4BA4BEF
:101AF0001A78062A1BD0B94AD2F8883043F470030A
:101B0000C2F88830BFF34F8FBFF36F8F4FF01023B1
:101B1000D3F80022002AC0F22D81D3F80432002B22
:101B2000C0F22881AE4BAF4A1A60F0BC7047043354
:101B30001B681B07DFD1AC4B1B6803F0F002302A97
:101B400000F0088103F0E003402B00F00381A64B76
:101B50001B6803F0F003302B00F0EE80A24B1B68F3
:101B600003F0F002302A00F0D78003F0E003402BAE
:101B700000F0D2809C4B1B6803F0F003302B00F088
:101B8000BB80994B1B6803F0F002302A00F0A08064
:101B900003F0E003402B00F09B80934B1B6803F0A5
:101BA000F003302B00F086808F4B1B6803F0F003AE
:101BB000302B68D08C4B1B6803F0F003502B10D0F7
:101BC000894B1B6803F0F002302A03D003F0E003D6
:101BD000402B90D1854B864A1B6803F04F0313605E
:101BE00089E74FF08052834BD2F80414C3F82015D4
:101BF000D2F80814C3F82415D2F80C14C3F8281529
:101C0000D2F81014C3F82C15D2F81414C3F83015F8
:101C1000D2F81814C3F83415D2F81C14C3F84015C0
:101C2000D2F82014C3F84415D2F82414C3F8481588
:101C3000D2F82814C3F84C15D2F82C14C3F8501558
:101C4000D2F83014C3F85415D2F83414C3F8601520
:101C5000D2F83814C3F86415D2F83C14C3F86815E8
:101C6000D2F840145C48C3F86C15D2F844140278DA
:101C7000C3F87015062A7FF43EAF5F4B1B681A0746
:101C80007FF439AF9CE75D4E5D4C5E495E4B0527A6
:101C9000012500203F223760256008601A604E4B06
:101CA0001B78062B7FF427AF534B1B6819077FF473
:101CB00022AF7FE7484B554A1B780321062B116062
:101CC0007FF419AF4C4B1B6818077FF414AF6BE718
:101CD0004FF080430022C3F80C21C3F81021C3F851
:101CE00038253D4B1B78062B7FF405AF424B1B6814
:101CF0001C077FF400AF50E74549374ACB6812789C
:101D000023F08073062ACB607FF4F5AE3A4B1B6854
:101D10001D077FF4F0AE34E73E4B2F4A1B68127864
:101D20003D49C3F34233062A0B60B8D1324B1B68DE
:101D30001E077FF4E0AE1DE7274B384A1B78384971
:101D40001160062B7FF4D7AE2B4B1B681F077FF467
:101D5000D2AE03E7334B204A1B6812783249C3F3F3
:101D60000423062A0B60BCD1234B1B681B073FF4DE
:101D7000EEAEC0E62D4B0122C3F80425D3F80024B3
:101D8000002AFBD04FF0102315222849C3F8002267
:101D9000D1F80034002BFBD04FF010221521234B3B
:101DA000C2F80412D3F80024002AFBD000221F49F5
:101DB000C3F80425D1F80034002BFBD0BFF34F8FBC
:101DC00006491B4BCA6802F4E0621343CB60BFF3C1
:101DD0004F8F00BFFDE700BFE00F00F000ED00E017
:101DE0006C0000200090D003E80F00F058020010B3
:101DF000E40E004000C00040E40F00F01056004028
:101E0000885600401856004014560040A005004077
:101E1000F0ED00E0440200103C05004074C00740B3
:101E20000DF0ADBA240300104035014000E0014040
:101E30000400FA05044B054A1B681B6A002B08BF07
:101E40001346D3F8EC00704700000020700000201B
:101E500082B001B901A942B14BB113780B6012787D
:101E6000101C18BF012002B070471046FBE76FF04E
:101E70000100F8E710B5431E0A44914200D110BD9D
:101E800011F8014B03F8014FF7E700000CB430B52F
:101E9000174B0C1E9DB01D6808DA8B232B604FF08A
:101EA000FF301DB0BDE8304002B070474FF4027300
:101EB000ADF8143014BF04F1FF33234604930793A5
:101EC0004FF6FF7302900690ADF81630209A21ABC2
:101ED00002A92846019300F07DF8431CBCBF8B2368
:101EE0002B60002CDDD0029B00221A70D9E700BFC6
:101EF00000000020034613F8012B002AFBD1181A1A
:101F00000138704749B1FF2A85BF8A2303600A70F0
:101F10004FF0FF3098BF01207047084670472DE909
:101F2000F0478E689E4282460C469146984635D8C8
:101F30008A8912F4906F31D0256809696F1A656932
:101F4000022305EB450595FBF3F508F101033B443E
:101F50009D4238BF1D46530531D5294600F080FB10
:101F6000064650B90C23CAF80030A38943F0400359
:101F7000A3814FF0FF30BDE8F0873A462169FFF7B3
:101F800079FFA38923F4906343F08003A381266142
:101F900065613E44ED1B2660A5604646464528BF68
:101FA000464632464946206800F0F2FAA3689B1B79
:101FB000A36023681E4426600020BDE8F0872A46FF
:101FC00000F0ACFB06460028E1D12169504600F044
:101FD000F9FAC7E72DE9F04F9DB0804603938B894E
:101FE0001C060D4616460FD50B696BB9402100F053
:101FF00037FB2860286128B90C23C8F800304FF05F
:10200000FF30C5E040236B610023099320238DF846
:10201000293030238DF82A304FF0010B37463C46EB
:1020200014F8013B002B3CD1B7EB060A0BD053460A
:10203000324629464046FFF772FF013000F0A38088
:10204000099B534409933B78002B00F09C800023AC
:102050004FF0FF3204930793059206938DF85330A7
:102060001A9305222178504800F042FA671C049B1D
:10207000D8B9D90644BF20228DF853201A0744BF8F
:102080002B228DF8532022782A2A16D0079A002175
:102090000A20274601343B78303B092B51D9C9B17E
:1020A00011E0252BC0D02746B9E73F4A801A0BFA2A
:1020B00000F0184304903C46D3E7039A111D1268C0
:1020C0000391002A01DB079204E0524243F002032D
:1020D000079204933B782E2B0ED17B782A2B07F1A5
:1020E000010132D1039B1A1D1B680392002BB8BF5C
:1020F0004FF0FF33023705932C4C397803222046EA
:1021000000F0F6F938B14023001B03FA00F0049BFD
:10211000034304930137397825488DF828100622A7
:102120007E1C00F0E5F9002835D0224BFBB9039B5B
:10213000073323F0070308330393099B4B440993A8
:102140006CE700FB02320121A3E700230593184648
:102150000A240F4601313A78303A092A03D9002B74
:10216000CAD00590C8E704FB00200123F1E703ABC8
:1021700000932A46104B04A94046AFF30080B0F10B
:10218000FF3F8146D9D1AB895B063FF538AF09984F
:102190001DB0BDE8F08F03AB00932A46064B04A99F
:1021A000404600F081F8EAE7E3290000E929000051
:1021B000ED290000000000001F1F00002DE9F0477E
:1021C00091461F468A680B69DDF820809342B8BFAC
:1021D0001346C9F8003091F8432006460C4612B168
:1021E0000133C9F800302368990642BFD9F800309E
:1021F0000233C9F80030256815F0060507D104F14F
:10220000190AE368D9F800209B1A9D4229DB94F84B
:1022100043302268003318BF012392062ED404F104
:10222000430239463046C047013021D02368E56873
:10223000D9F8002003F00603042B08BFAD1AA368E9
:1022400022690CBF25EAE57500259342C4BF9B1A9D
:10225000ED184FF000091A344D451BD10020BDE8A0
:10226000F0870123524639463046C047013003D13A
:102270004FF0FF30BDE8F0870135C2E7E1185A1C86
:10228000302081F84300224494F8451082F843102E
:102290000233C4E70123224639463046C0470130A5
:1022A000E6D009F10109D7E72DE9F04317460A7E88
:1022B00085B06E2A984606460C460C9B01F1430EEB
:1022C00000F0BC801AD8632A2ED00AD8002A00F069
:1022D000C880582A00F08A8004F1420584F8422020
:1022E0002AE0642A01D0692AF6D121681A6811F01F
:1022F000800F23D0111D1960136827E0732A00F0A6
:10230000B48008D86F2A2AD0702AE5D10A6842F032
:1023100020020A6003E0752A21D0782ADCD17822D5
:1023200084F845206E4964E01A6801F14205111DE8
:102330001960136884F842300123A3E011F0400FC4
:1023400002F104011960D7D0B2F90030002B03DA92
:102350002D225B4284F8432062490A2217E020685C
:10236000196810F0800F03D0081D18600B6806E094
:1023700010F0400F01F104001860F7D00B885949A4
:102380006F2A14BF0A220822002084F843006568DF
:10239000A560002DC0F29C80206820F00400206021
:1023A000002B3FD1002D40F095807546082A0BD1B7
:1023B0002368DA0708D5236962689A42DEBF3023B2
:1023C00005F8013C05F1FF35AEEB05032361CDF8BF
:1023D00000803B4603AA21463046FFF7EFFE01305E
:1023E00055D14FF0FF3005B0BDE8F08381F84520AE
:1023F0003C492268186812F0800F00F104051D6046
:1024000001D0036802E05506FBD50388D00744BF1E
:1024100042F0200222601BB9226822F020022260D2
:102420001022B1E77546B3FBF2F002FB1033CB5C30
:1024300005F8013D03460028F5D1B7E708681A689A
:10244000496910F0800F04D0101D186013681960DE
:1024500007E010F0400F02F1040018601368F6D096
:102460001980002323617546B1E71A68111D1960B0
:10247000156862680021284600F03AF808B1401B50
:10248000606063682361002384F843309FE7236919
:102490002A4639463046C0470130A2D023689B0700
:1024A00007D5002504F11909E368039A9B1A9D4298
:1024B00005DBE068039B9842B8BF184693E7012309
:1024C0004A4639463046C04701308AD00135EBE7ED
:1024D000002BA7D10B7884F8423004F1420565E760
:1024E000052A0000F42900000000000000000000A0
:1024F00001F0FF01102A2BDB10F0070F08D010F8B5
:10250000013B013A8B422DD010F0070F42B3F6D1B8
:10251000F0B441EA012141EA014122F007047FF0D1
:1025200000070023F0E80256083C85EA010586EA28
:10253000010685FA47F5A3FA87F586FA47F6A5FA64
:1025400087F68EB9EED1F0BC01F0FF0102F0070270
:1025500032B110F8013B013A83EA010313B1F8D11B
:102560000020704701387047002D06BF35460338FC
:10257000073815F0010F07D1013015F4807F02BF35
:10258000013015F4C03F0130F0BC0138704700BF86
:10259000884210B501EB020303D8421E99420CD1C8
:1025A00010BD9842F9D28118D21AD34200D110BD81
:1025B00013F8014D01F8014DF7E711F8014B02F84E
:1025C000014FEBE738B50546002945D051F8043CEA
:1025D0000C1F002BB8BFE41800F0D6F81F4A136890
:1025E000104633B9636014602846BDE8384000F0F7
:1025F000CCB8A3420CD921686218934204BF1A6870
:102600005B68636004BF521822600460ECE7134605
:102610005A680AB1A242FAD919685818A0420BD1D7
:1026200020680144581882421960DDD11068526850
:102630005A6001441960D7E702D90C232B60D3E715
:10264000206821188A4204BF11685268626004BF82
:10265000091821605C60C7E738BD00BF7C08002016
:1026600070B5CD1C25F0030508350C2D38BF0C25A1
:10267000002D064601DBA94203D90C23336000205C
:1026800070BD00F081F8234A1468214691B9224CAC
:1026900023681BB9304600F067F8206029463046B1
:1026A00000F062F8431C26D10C233360304600F062
:1026B0006CF8E4E70B685B1B1AD40B2B0FD90B608B
:1026C000CD50CC18304600F060F804F10B00231D0B
:1026D00020F00700C31A1BD05A42E25070BD8C4252
:1026E0000DBF63684B686360136018BF0C46E9E771
:1026F0000C464968CAE7C41C24F00304A04205D074
:10270000211A304600F030F80130CDD02560D9E7ED
:1027100070BD00BF7C08002080080020F8B5074687
:1027200014460E4621B91146BDE8F840FFF798BFA0
:1027300022B9FFF747FF25462846F8BD00F026F8E6
:1027400084420FD921463846FFF78AFF0546002804
:10275000F2D031462246FFF78DFB31463846FFF76F
:1027600031FFE9E73546E7E738B5064C0023054673
:102770000846236000F014F8431C02D1236803B11B
:102780002B6038BD880800207047704751F8040C52
:102790000028A0F10400BCBF0B58C018704700000F
:1027A000044A05491368002B08BF0B461844106003
:1027B000184670478408002090080020F8B500BF34
:1027C000F8BC08BC9E467047F8B500BFF8BC08BC12
:1027D0009E46704704000020FFFFFFFFFFFFFFFF42
:1027E000FFFFFFFFFFFFFFFF0000000000000000F1
:1027F0000000D601070100001B5B306D00000000E7
:102800005B253038645D00001B5B313B33316D4F1D
:10281000766572666C6F770D0A0000001B5B313BBA
:1028200033316D3A4552524F523A466174616C0DE4
:102830000A0000001B5B306D3A494E464F3A48692A
:1028400074207765616B2068616E646C65720D0A37
:10285000000000001B5B306D4150503A494E464F1E
:102860003A5374617274696E672E2E2E200D0A0021
:102870001B5B306D4150503A494E464F3A48656CAB
:102880006C6F20576F726C6420210D0A00000000ED
:102890001B5B313B33336D4150503A5741524E49E7
:1028A0004E473A48656C6C6F20576F726C642021FC
:1028B0000D0A00001B5B313B33316D4150503A45EE
:1028C00052524F523A48656C6C6F20576F726C646D
:1028D00020210D0A000000004300504F53495800CA
:1028E0002E000020202020202020202028282828FA
:1028F00028202020202020202020202020202020D0
:10290000202020881010101010101010101010101F
:10291000101010040404040404040404041010102F
:1029200010101010414141414141010101010101DB
:102930000101010101010101010101010101101069
:1029400010101010424242424242020202020202AF
:10295000020202020202020202020202020210103B
:102960001010200000000000000000000000000027
:102970000000000000000000000000000000000057
:102980000000000000000000000000000000000047
:102990000000000000000000000000000000000037
:1029A0000000000000000000000000000000000027
:1029B0000000000000000000000000000000000017
:1029C0000000000000000000000000000000000007
:1029D00000000000000000000000000000000000F7
:1029E000000000232D302B2000686C4C00656667CA
:1029F0004546470030313233343536373839414275
:102A00004344454600303132333435363738396146
:0C2A1000626364656600000000000000C6
:082A1C0050D8FF7F010000000B
:102A2400040000200000000000000000000000007E
:102A34000000000000000000000000000000000092
:102A44000000000000000000000000000000000082
:102A54000000000000000000000000000000000072
:102A64000000000000000000000000000000000062
:102A74000000000000000000000000000000000052
:102A84000000000000200040000000000090D0037F
:102A940043000000000000000000000000000000EF
:102AA4000000000000000000000000000000000022
:102AB40043000000000000000000000000000000CF
:102AC4000000000000000000000000000000000002
:102AD40043000000000000000000000000000000AF
:102AE40000000000000000000000000000000000E2
:102AF400430000000000000000000000000000008F
:102B040000000000000000000000000000000000C1
:102B1400430000000000000000000000000000006E
:102B240000000000000000000000000000000000A1
:102B3400430000000000000000000000000000004E
:102B44000000000000000000000000000000000081
:102B5400430000000000000000000000000000002E
:102B64000000000000000000000000000000000061
:102B7400051F0000511E000000000000E2280000B4
:102B8400E0280000E8290000E8290000E829000006
:102B9400E8290000E8290000E8290000E8290000ED
:102BA400E8290000E8290000FFFFFFFFFFFFFFFF07
:102BB400FFFFFFFFFFFF00000100415343494900AD
:102BC4000000000000000000000000000000000001
:102BD4000000000000000000000041534349490088
:102BE40000000000000000000000000000000000E1
:102BF40000000000000000000000000025020000AA
:082C04000102000000000000C5
:0400000300001AB12E
:00000001FF
