:1000000000000120C10E0000E90E0000EB0E000010
:10001000ED0E0000EF0E0000F10E000000000000E9
:10002000000000000000000000000000F30E0000CF
:10003000F50E000000000000F70E0000F90E0000B1
:10004000B10A0000FB0E0000290B0000FB0E0000AF
:10005000FB0E0000FB0E0000FB0E0000FB0E00007C
:10006000FB0E0000FB0E0000FB0E0000FB0E00006C
:10007000FB0E0000FB0E0000FB0E0000FB0E00005C
:10008000FB0E0000BD030000FB0E0000FB0E000095
:100090005D040000FB0E0000FB0E0000FB0E0000E4
:1000A000FB0E0000FB0E0000FB0E0000FB0E00002C
:1000B000FB0E0000FB0E000000000000000000002E
:1000C000FB0E0000FB0E0000FB0E0000FB0E00000C
:1000D000FB0E0000FB0E0000FB0E00000000000005
:1000E0000000000000000000000000000000000010
:1000F0000000000000000000000000000000000000
:1001000000000000000000000000000000000000EF
:1001100000000000000000000000000000000000DF
:1001200000000000000000000000000000000000CF
:1001300000000000000000000000000000000000BF
:1001400000000000000000000000000000000000AF
:10015000000000000000000000000000000000009F
:10016000000000000000000000000000000000008F
:10017000000000000000000000000000000000007F
:10018000000000000000000000000000000000006F
:10019000000000000000000000000000000000005F
:1001A000000000000000000000000000000000004F
:1001B000000000000000000000000000000000003F
:1001C000000000000000000000000000000000002F
:1001D000000000000000000000000000000000001F
:1001E000000000000000000000000000000000000F
:1001F00000000000000000000000000000000000FF
:1002000010B5054C237833B9044B13B10448AFF350
:1002100000800123237010BD70000020000000004A
:10022000641200000C4B43B10C480D4910B5AFF3FC
:1002300000800C48036823B910BD0A48036833B92D
:100240007047094B002BF7D0BDE810401847064B0C
:10025000002BF5D0184700BF00000000641200001A
:10026000740000206C00002000000000154B002BE3
:1002700008BF134B9D46A3F5803A00218B460F46DD
:100280001348144A121A00F063F80F4B002B00D0E9
:1002900098470E4B002B00D0984700200021040007
:1002A0000D000D48002802D00C48AFF3008000F08C
:1002B0002BF82000290000F0B1FD00F011F800BF7C
:1002C0000000080000000120000000000000000005
:1002D00070000020E4010020000000000000000089
:1002E00008B5074B044613B10021AFF30080054B5E
:1002F0001868836A03B19847204600F031F800BFC0
:10030000000000005C12000070B50D4E0D4CA41BE7
:10031000A4100025A54209D10B4E0C4C00F092FF11
:10032000A41BA4100025A54205D170BD56F82530A8
:1003300098470135EEE756F8253098470135F2E742
:100340006400002064000020640000206800002099
:1003500002440346934200D1704703F8011BF9E7BA
:10036000FEE700BF074B4FF0A041185CD1F8043501
:100370000122824022EA03001340C1F80805C1F8B7
:100380000C357047601200004FF0A04310B40322F8
:100390004FF480044FF400004FF08071C3F85827E9
:1003A000C3F85C27C3F86027C3F80845C3F80805FD
:1003B000C3F808155DF8044B704700BFF8B5204A34
:1003C000204B0025C2F84051C2F84451C2F84851B0
:1003D000C2F84C51C2F80051C2F804511B6813B363
:1003E0001949D2F804450A68A41A1A6824F07F440F
:1003F000A2422F4609D8197CDE69A41A154499B97E
:100400001EB133461A68A242F5D91049104A0B783A
:1004100012789A420DD00F490F4A41F823504FF4F9
:100420008013C2F80031F8BD1F745A69986990476B
:10043000E6E7531CDBB2022B08BF00230B70EAE790
:1004400000100140AC010020A8010020A5010020FF
:10045000A40100209C01002000E100E02DE9F04F04
:100460007D4A7E491378097899428BB03BD001339D
:10047000DBB27B490491022B0D687A49069108BFD3
:1004800000231370784A084652F82310D0F80090E1
:10049000049A6B18002423F07F434E46AC46136049
:1004A000204627462546AEB133688B4200F2ED81E7
:1004B000F4683760C91A1844F3693CB10CEB000EBC
:1004C0002EF07F42F561B460726035461E4601240D
:1004D000002EE9D12A46B146002C40F0DB820123F0
:1004E0000793069B07E05F4B5D4A0492D3F80090A8
:1004F000069300220792D3F800A05C4BDFF874C18A
:100500001B780593049B186800234946CE46089340
:10051000D146099303934FF0010B17469A46804644
:1005200037B37C68BD683B46FF695148A4EB0802BD
:1005300022F07F42824258D815441D60002283F881
:1005400010B05A609A60DA6100296ED0086885425E
:1005500063D90C4603E01068A8424FD21446E26902
:100560002D1A002AF7D11D60DA61E361002FD8D17E
:100570000297CDF804E09CF801709CF8002000255B
:10058000974200F08680104600EB40000CEBC00064
:10059000541C9CF80230E2B204798CF8002093429B
:1005A00004BF8CF800500022022C83684ED0032C2C
:1005B00040D0012CE4D11E7C002EE1D1C4685C60E7
:1005C00005699D604269DA6082699A61059A029FB5
:1005D000DDF804E0002AA8D03446A4EB0802244841
:1005E0005E6022F07F428242A6D9A8EB040424F088
:1005F0007F44AC4208D22D1B1D609FE7401B10605A
:100600001D60DA61E361B1E7002583F810B01D6079
:100610005D609D60DD6141B10868451B0D609946D4
:10062000D9614FF0010A19467AE7994619464FF009
:10063000010A75E70029A3D00022CB690A74194684
:10064000002BFAD199464FF0010A94E7D9B19942AB
:10065000084615D110E100BFA4010020A50100202B
:10066000A8010020AC0100209C010020980100207E
:10067000FEFF7F008C000020A34200F0E8802046AF
:10068000C469002CF8D10E4697421D7431467FF4A0
:100690007AAF4046D046CA46DDF80490B8F1000F64
:1006A00040F0F481099B002B40F0ED81089B1BB1C9
:1006B0007B4B9DF814201A70039B13B9494500F039
:1006C0004C81002900F04E81764C049BD4F804053F
:1006D0001B68754D0F682978C21A22F07F420332D9
:1006E000002951D17149DFF8C8C1DFF8C8E14FF4E2
:1006F0008036C4F84463C4F804634FF40036C1F88C
:1007000080610E60012626602F21DCF8004000BFCA
:1007100000BF00BF00BF00BF00BF00BF00BF7445E7
:100720002FD000BF00BF00BF00BF00BF00BF00BF91
:1007300000BF00BF00BF00BF00BF00BF00BF00BFC1
:1007400000BF00BF00BF00BF00BF00BF00BF00BFB1
:1007500000BF00BF00BF00BF00BF00BF00BF00BFA1
:1007600000BF00BF00BF00BF00BF00BF00BF00BF91
:1007700000BF00BF00BF00BF00BF00BF00BF00BF81
:1007800000BF0139C3D12E7097422CBFDB199B18D3
:10079000444923F07F43C1F84035D1F80425121AAB
:1007A0001B1A22F07F4223F07F4303329A4248D93A
:1007B000D1F804353E4AC1F8403512683D492F232F
:1007C00000BF00BF00BF00BF00BF00BF00BF00BF31
:1007D0008A422FD000BF00BF00BF00BF00BF00BFD4
:1007E00000BF00BF00BF00BF00BF00BF00BF00BF11
:1007F00000BF00BF00BF00BF00BF00BF00BF00BF01
:1008000000BF00BF00BF00BF00BF00BF00BF00BFF0
:1008100000BF00BF00BF00BF00BF00BF00BF00BFE0
:1008200000BF00BF00BF00BF00BF00BF00BF00BFD0
:1008300000BF00BF013BC3D11C4B4FF40032C3F8D3
:100840000021174A002313700BB0BDE8F08F8342DC
:1008500012D00E46DC69D3F800E0C46134B12268DE
:10086000724422609CF800209CF801700398B14209
:1008700018BF0120039007E7D1F81C90B9F1000FD1
:100880001AD04E464FF0010AE4E72A46B146002C42
:1008900060D15B1AC9F8003001230793069B2AE652
:1008A00098010020001001409901002000E100E0C3
:1008B000600000200024F400784E794CC6F808B09F
:1008C000784E4FF02F0E366800BF00BF00BF00BF4C
:1008D00000BF00BF00BF00BFA6422FD000BF00BFB7
:1008E00000BF00BF00BF00BF00BF00BF00BF00BF10
:1008F00000BF00BF00BF00BF00BF00BF00BF00BF00
:1009000000BF00BF00BF00BF00BF00BF00BF00BFEF
:1009100000BF00BF00BF00BF00BF00BF00BF00BFDF
:1009200000BF00BF00BF00BF00BF00BF00BF00BFCF
:1009300000BF00BF00BF00BF00BF00BFBEF1010E7F
:10094000C2D1012634460896C8464E4605940994FD
:10095000A2467FE7069806609BE7079B002B3FF4C3
:1009600070AFAEE64D4A504B4E4E4D4C4FF480307A
:100970004FF400370125C3F88070C2F848032F23D5
:10098000C2F80803556030681E4600BF00BF00BFB4
:1009900000BF00BF00BF00BF00BFA0422FD000BFFC
:1009A00000BF00BF00BF00BF00BF00BF00BF00BF4F
:1009B00000BF00BF00BF00BF00BF00BF00BF00BF3F
:1009C00000BF00BF00BF00BF00BF00BF00BF00BF2F
:1009D00000BF00BF00BF00BF00BF00BF00BF00BF1F
:1009E00000BF00BF00BF00BF00BF00BF00BF00BF0F
:1009F00000BF00BF00BF00BF00BF00BF00BF013E7F
:100A0000C3D19560049A116000BF00BF00BF00BF52
:100A100000BF00BF00BF00BFA0422FD000BF00BF7B
:100A200000BF00BF00BF00BF00BF00BF00BF00BFCE
:100A300000BF00BF00BF00BF00BF00BF00BF00BFBE
:100A400000BF00BF00BF00BF00BF00BF00BF00BFAE
:100A500000BF00BF00BF00BF00BF00BF00BF00BF9E
:100A600000BF00BF00BF00BF00BF00BF00BF00BF8E
:100A700000BF00BF00BF00BF00BF00BF013BC3D12C
:100A80000A4B1970DDE6049B18600FE6069BC3F85D
:100A900000A007E6069B1E6021E500BF0010014094
:100AA0000024F4006000002000E100E09901002033
:100AB00010B51A4B1A6882B0A2B100221A601B68E6
:100AC00000934FF080430122154C0099C3F808238E
:100AD000A368627033B10CCB0020A2609847A36872
:100AE000002BF8D10F4B1A68AAB100221A601B68BC
:100AF00001934FF080430222094C0199C3F8082367
:100B000023690122A27033B10CCB012022619847E6
:100B10002369002BF8D102B010BD00BF00010040D6
:100B2000B00100200401004070B5A54C237F8EB0B9
:100B3000002B73D1A34AD2F80413890546D4A14BE4
:100B4000D3F80423520704D5D3F80821002A40F033
:100B5000C9809C4BD3F81C21BAB1A28AA17D92B264
:100B60008A424FF00002C3F81C2180F0A880D3F81D
:100B70001C210692069AA18AA28AA06889B2013233
:100B8000415C92B2A282C3F81C158E4BD3F844216B
:100B9000D2B10022C3F84421D3F84411A27E0491BB
:100BA0000499002A40F08880E37D6BB10023617EC8
:100BB000E268E37501238DF830108DF828300B9230
:100BC00094E80A000AA898470EB070BDD2F8241124
:100BD0000029B4D0C2F82431D2F82411A37E0791A1
:100BE0004FF401710798C2F808130BB90123536041
:100BF000744A02238DF82830D2F88034C2F8803449
:100C0000E07DE2680D9300238DF83000E3752376D4
:100C100021680B9263680AA898479AE7694BD3F852
:100C20002421002A40F09280D3F8101161B1C3F85A
:100C30001021D3F8101103910399D3F83C15E07DEE
:100C4000C9B2884200F0A4805E4BD3F84421B2B10F
:100C50000022C3F84421D3F84401E17D01900198BA
:100C600069B1D3F83C35E1688DF8303001230B9140
:100C70008DF82830E27594E80A000AA89847514B8D
:100C8000D3F82021002A9FD00022C3F82021D3F8D6
:100C90002001A17D00900098002995D0D3F84C1533
:100CA000A3688DF830100B938DF82820A27594E876
:100CB0000A000AA8984787E701221A6074E7D3F868
:100CC0001C310593059B00293FF45FAFA3688DF8A5
:100CD00030100B938DF82820A27594E80A000AA81A
:100CE000984752E7E27D002A6ED00022C3F808211F
:100CF000D3F808210892089AE168627ED3F8183583
:100D00008B54637EE27D0133DBB26376637E934274
:100D10007FF41FAF237E002B6CD1A37E13B9294B28
:100D200001225A60274AE06863684FF40171C2F8F3
:100D30000813627E8DF83020002501220B90216877
:100D4000E5758DF828200AA8984702E70022C3F825
:100D50002421D3F82411029102218DF82810029940
:100D6000D3F88014C3F880140D91D3F83C15E368D0
:100D7000E27522768DF830100B93216863680AA81B
:100D80009847104BD3F84421002A3FF478AF5FE72F
:100D9000217E11B3D3F80062E568E17526F02006E4
:100DA000C3F8006226698DF8300001238DF82830E1
:100DB000227621680B95E66063680AA8984743E7A6
:100DC000C401002000200040C3F80821D3F8081116
:100DD00009910999D3F8183598E7E268E17501237C
:100DE0008DF830008DF828300B9294E80A000AA89C
:100DF000984729E7607EE5682169E37501220023B1
:100E00008DF83000E160237663760B958DF828200D
:100E100094E80A000AA898479BE600BFF8B5FFF7D8
:100E2000B3FA244F244E254D00242046FFF79AFAAA
:100E30003A682B4600BF00BF00BF00BF00BF00BF25
:100E400000BF00BFB2422FD000BF00BF00BF00BF35
:100E500000BF00BF00BF00BF00BF00BF00BF00BF9A
:100E600000BF00BF00BF00BF00BF00BF00BF00BF8A
:100E700000BF00BF00BF00BF00BF00BF00BF00BF7A
:100E800000BF00BF00BF00BF00BF00BF00BF00BF6A
:100E900000BF00BF00BF00BF00BF00BF00BF00BF5A
:100EA00000BF00BF00BF00BF013BC3D10134032C12
:100EB000BBD1B9E7600000200024F40020A10700A6
:100EC0000649074A074B9B1A03DD043BC858D0501C
:100ED000FBDC00F013F8FFF7C9F900007012000006
:100EE0000000002070000020FEE7FEE7FEE7FEE7BE
:100EF000FEE7FEE7FEE7FEE7FEE7FEE7F0B4BA4BEB
:100F00001A78062A1BD0B94AD2F8883043F4700305
:100F1000C2F88830BFF34F8FBFF36F8F4FF01023AD
:100F2000D3F80022002AC0F22D81D3F80432002B1E
:100F3000C0F22881AE4BAF4A1A60F0BC7047043350
:100F40001B681B07DFD1AC4B1B6803F0F002302A93
:100F500000F0088103F0E003402B00F00381A64B72
:100F60001B6803F0F003302B00F0EE80A24B1B68EF
:100F700003F0F002302A00F0D78003F0E003402BAA
:100F800000F0D2809C4B1B6803F0F003302B00F084
:100F9000BB80994B1B6803F0F002302A00F0A08060
:100FA00003F0E003402B00F09B80934B1B6803F0A1
:100FB000F003302B00F086808F4B1B6803F0F003AA
:100FC000302B68D08C4B1B6803F0F003502B10D0F3
:100FD000894B1B6803F0F002302A03D003F0E003D2
:100FE000402B90D1854B864A1B6803F04F0313605A
:100FF00089E74FF08052834BD2F80414C3F82015D0
:10100000D2F80814C3F82415D2F80C14C3F8281524
:10101000D2F81014C3F82C15D2F81414C3F83015F4
:10102000D2F81814C3F83415D2F81C14C3F84015BC
:10103000D2F82014C3F84415D2F82414C3F8481584
:10104000D2F82814C3F84C15D2F82C14C3F8501554
:10105000D2F83014C3F85415D2F83414C3F860151C
:10106000D2F83814C3F86415D2F83C14C3F86815E4
:10107000D2F840145C48C3F86C15D2F844140278D6
:10108000C3F87015062A7FF43EAF5F4B1B681A0742
:101090007FF439AF9CE75D4E5D4C5E495E4B0527A2
:1010A000012500203F223760256008601A604E4B02
:1010B0001B78062B7FF427AF534B1B6819077FF46F
:1010C00022AF7FE7484B554A1B780321062B11605E
:1010D0007FF419AF4C4B1B6818077FF414AF6BE714
:1010E0004FF080430022C3F80C21C3F81021C3F84D
:1010F00038253D4B1B78062B7FF405AF424B1B6810
:101100001C077FF400AF50E74549374ACB68127897
:1011100023F08073062ACB607FF4F5AE3A4B1B6850
:101120001D077FF4F0AE34E73E4B2F4A1B68127860
:101130003D49C3F34233062A0B60B8D1324B1B68DA
:101140001E077FF4E0AE1DE7274B384A1B7838496D
:101150001160062B7FF4D7AE2B4B1B681F077FF463
:10116000D2AE03E7334B204A1B6812783249C3F3EF
:101170000423062A0B60BCD1234B1B681B073FF4DA
:10118000EEAEC0E62D4B0122C3F80425D3F80024AF
:10119000002AFBD04FF0102315222849C3F8002263
:1011A000D1F80034002BFBD04FF010221521234B37
:1011B000C2F80412D3F80024002AFBD000221F49F1
:1011C000C3F80425D1F80034002BFBD0BFF34F8FB8
:1011D00006491B4BCA6802F4E0621343CB60BFF3BD
:1011E0004F8F00BFFDE700BFE00F00F000ED00E013
:1011F000600000200090D003E80F00F058020010BB
:10120000E40E004000C00040E40F00F01056004023
:10121000885600401856004014560040A005004073
:10122000F0ED00E0440200103C05004074C00740AF
:101230000DF0ADBA240300104035014000E001403C
:101240000400FA05F8B500BFF8BC08BC9E4670471C
:10125000F8B500BFF8BC08BC9E46704700000020EF
:08126000161718000000000041
:0812680004F0FF7F010000000B
:10127000000000000000000000000000000000006E
:10128000000000000000000000000000000000005E
:10129000000000000000000000000000000000004E
:1012A000000000000000000000000000000000003E
:1012B000000000000000000000000000000000002E
:1012C000000000000000000000000000000000001E
:1012D0000090D00325020000010200000000000081
:0400000300000EC12A
:00000001FF
