:020000040000FA
:1000000000040020E90800007D050000C908000088
:1000100087050000910500009B050000000000001E
:100020000000000000000000000000000D090000BA
:10003000A505000000000000AF050000B9050000A4
:10004000C3050000CD050000D7050000E105000054
:10005000EB050000F5050000FF05000009060000A3
:10006000130600001D0600002706000031060000F0
:100070003B060000450600004F0600005906000040
:10008000630600006D060000770600008106000090
:100090008B060000950600009F060000A9060000E0
:1000A000B3060000BD060000C7060000D106000030
:1000B000DB060000E5060000EF060000F906000080
:1000C000030700000D0700001707000021070000CC
:1000D0002B070000350700003F070000490700001C
:1000E000530700005D07000067070000710700006C
:1000F0007B070000850700008F07000099070000BC
:10010000A30700001FB500F003F88DE80F001FBD26
:1001100000F0E0BB1FB56FF00100009040100390AD
:10012000029001904FF010208069000B420900F00E
:100130001F045DF822300120A04083434DF8223097
:10014000684600F045F91FBDF0B54FF6FF734FF458
:10015000B4751A466E1E11E0A94201D3344600E080
:100160000C46091B30F8027B641E3B441A44F9D14B
:100170009CB204EB134394B204EB12420029EBD17E
:1001800098B200EB134002EB124140EA0140F0BD8F
:10019000DE4992B00446D1E90001CDE91001FF2209
:1001A0004021684600F03CFB94E80F008DE80F000A
:1001B000684610A902E004C841F8042D8842FAD12B
:1001C00010216846FFF7C0FF1090AA208DF8440068
:1001D000FFF7A0FF00F0F3F84FF01024A069102201
:1001E0006946803000F002F9A069082210A900F0E9
:1001F000FDF800F0D8F84FF080510A6949690068AD
:100200004A43824201D8102070470020704710B541
:10021000D0E900214FF0805002EB8103026944696C
:100220006243934209D84FF01022536903EB8103D4
:100230000169406941438B4201D9092010BD5069D1
:10024000401C01D0002010BD0F2010BD70B501680A
:100250000446AF4D4FF01020072952D2DFE801F0DD
:10026000330419293C1E2500D4E902656468294637
:10027000304600F0CDF82A462146304600F0B6F868
:10028000AA002146304600F09FFA002800D0032043
:1002900070BD00F051FB4FF4805007E0201DFFF7C8
:1002A000AAFF0028F4D100F047FB60682860002016
:1002B00070BD241D94E80700920000F085FA002824
:1002C000F6D00E2070BD8069401C12D0201DFFF7B3
:1002D0009EFF0028F6D109E08069401C09D0201D4E
:1002E000FFF789FF0028EDD1606820B12046FFF7B5
:1002F0004FFF042070BDFFF70DFF00F060F800F025
:1003000052F8072070BD10B50C46182802D0012005
:10031000086010BD2068FFF799FF206010BD4FF006
:100320001024A069401C05D0A569A66980353079E4
:10033000AA2808D06069401C2DD060690068401C64
:1003400029D060692CE010212846FFF7FDFE3168B6
:1003500081421CD1A16901F18002C03105E030B1B8
:1003600008CA51F8040D984201D1012000E0002094
:100370008A42F4D158B1286810B1042803D0FEE7AE
:10038000284600F057F862496868086008E000F005
:1003900016F800F008F84FF480500168491C01D0AD
:1003A00000F0A4FAFEE7BFF34F8F5A4801685A4A9B
:1003B00001F4E06111430160BFF34F8FFEE74FF09E
:1003C00010208169491C02D0806900F0AEB87047E6
:1003D000524A01681160121D416811604F4A8168DC
:1003E00010321160111DC068086070472DE9F0419E
:1003F00017460D460646002406E03046296800F000
:10040000A7F8641C2D1D361DBC42F6D3BDE8F08153
:1004100070B50C4605464FF4806608E0284600F0AB
:1004200084F8B44205D3A4F5806405F58055002C0A
:10043000F4D170BD4168044609B1012500E00025F2
:100440004FF010267069A268920000F0BDF9C8B1A3
:10045000204600F01AF89DB17669A56864684FF4EB
:10046000002084420AD2854208D229463046FFF74E
:10047000CFFF2A4621463046FFF7B8FFFFF79FFF20
:10048000FFF791FFFFF746FEF8E72DE9FF414FF038
:100490001024616980680D0B01EB800000F6FF708D
:1004A000010B0020009001900290024603906846E4
:1004B00001230BE0560902F01F0C50F8267003FAD6
:1004C0000CFC47EA0C0740F82670521CAA42F1D3F4
:1004D0000AE04A0901F01F0650F8225003FA06F616
:1004E000354340F82250491C8029F2D3A169090BF9
:1004F0004A0901F01F0150F822408B409C4340F80C
:100500002240FFF765FFBDE8FF8100005C090000A5
:10051000000000200CED00E00400FA050006004099
:10052000144801680029FCD07047134A0221116069
:1005300010490B68002BFCD00F4B1B1D186008687E
:100540000028FCD00020106008680028FCD070470C
:10055000094B10B501221A60064A1468002CFCD021
:10056000016010680028FCD0002018601068002886
:10057000FCD010BD00E4014004E5014008208F4993
:1005800009680958084710208C4909680958084724
:1005900014208A49096809580847182087490968BA
:1005A0000958084730208549096809580847382004
:1005B00082490968095808473C2080490968095858
:1005C000084740207D4909680958084744207B496D
:1005D00009680958084748207849096809580847B0
:1005E0004C20764909680958084750207349096822
:1005F0000958084754207149096809580847582084
:100600006E490968095808475C206C49096809580F
:100610000847602069490968095808476420674904
:100620000968095808476820644909680958084753
:100630006C20624909680958084770205F490968B9
:100640000958084774205D49096809580847782007
:100650005A490968095808477C20584909680958C7
:10066000084780205549096809580847842053499C
:1006700009680958084788205049096809580847F7
:100680008C204E4909680958084790204B49096851
:10069000095808479420494909680958084798208B
:1006A00046490968095808479C204449096809587F
:1006B0000847A0204149096809580847A4203F4934
:1006C000096809580847A8203C490968095808479B
:1006D000AC203A49096809580847B02037490968E9
:1006E00009580847B4203549096809580847B8200F
:1006F0003249096809580847BC2030490968095837
:100700000847C0202D49096809580847C4202B49CB
:10071000096809580847C82028490968095808473E
:10072000CC202649096809580847D0202349096880
:1007300009580847D4202149096809580847D82092
:100740001E49096809580847DC201C4909680958EE
:100750000847E0201949096809580847E420174963
:10076000096809580847E8201449096809580847E2
:10077000EC201249096809580847F0200F49096818
:1007800009580847F4200D49096809580847F82016
:100790000A49096809580847FC20084909680958A6
:1007A00008475FF480700549096809580847000048
:1007B00003480449024A034B704700000000002030
:1007C000680900006809000040EA010310B59B07B2
:1007D0000FD1042A0DD310C808C9121F9C42F8D0AB
:1007E00020BA19BA884201D9012010BD4FF0FF305C
:1007F00010BD1AB1D30703D0521C07E0002010BD72
:1008000010F8013B11F8014B1B1B07D110F8013BFD
:1008100011F8014B1B1B01D1921EF1D1184610BDDE
:1008200002F0FF0343EA032242EA024200F005B865
:100830007047704770474FF000020429C0F01280E3
:1008400010F0030C00F01B80CCF1040CBCF1020F83
:1008500018BF00F8012BA8BF20F8022BA1EB0C0158
:1008600000F00DB85FEAC17C24BF00F8012B00F84E
:10087000012B48BF00F8012B70474FF0000200B574
:10088000134694469646203922BFA0E80C50A0E8B3
:100890000C50B1F12001BFF4F7AF090728BFA0E861
:1008A0000C5048BF0CC05DF804EB890028BF40F82D
:1008B000042B08BF704748BF20F8022B11F0804F6F
:1008C00018BF00F8012B7047014B1B68DB68184705
:1008D0000000002009480A497047FFF7FBFFFFF7B7
:1008E00011FC00BD20BFFDE7064B1847064A10600B
:1008F000016881F30888406800470000680900002B
:10090000680900001F030000000000201EF0040F13
:100910000CBFEFF30881EFF3098188690238007892
:10092000182803D100E00000074A1047074A126860
:100930002C3212681047000000B5054B1B68054AB1
:100940009B58984700BD00000703000000000020EE
:100950005809000004000000001000000000000022
:0809600000FFFFFF0090D0032F
:10100000E8120020111D0200152F0000831C0200B1
:10101000152F0000152F0000152F00000000000004
:10102000000000000000000000000000691D020038
:10103000152F000000000000152F0000152F0000E4
:10104000D11D0200D71D0200152F0000152F000032
:10105000152F0000152F0000152F0000152F000080
:10106000DD1D0200152F0000152F0000E31D0200FA
:10107000152F0000E91D0200EF1D0200F51D020002
:10108000152F0000152F0000152F0000152F000050
:10109000152F0000152F0000152F0000152F000040
:1010A000152F0000FB1D0200152F0000152F00005A
:1010B000152F0000152F0000152F0000152F000020
:1010C000011E0200152F0000152F0000152F000033
:1010D000152F0000152F0000152F0000152F000000
:1010E000152F0000152F0000152F0000152F0000F0
:1010F000152F0000152F0000152F0000152F0000E0
:10110000152F0000152F000000F002F820F0EDFD73
:101110000AA090E8000C82448344AAF10107DA4552
:1011200001D120F0E2FDAFF2090EBAE80F0013F092
:10113000010F18BFFB1A43F0010318471C130200EC
:101140003C1302000A444FF0000C10F8013B13F06E
:10115000070408BF10F8014B1D1108BF10F8015B10
:10116000641E05D010F8016B641E01F8016BF9D103
:1011700013F0080F1EBF10F8014BAD1C0C1B09D15A
:101180006D1E58BF01F801CBFAD505E014F8016BCC
:1011900001F8016B6D1EF9D59142D6D3704700005E
:1011A0000023002400250026103A28BF78C1FBD870
:1011B000520728BF30C148BF0B6070471FB500F011
:1011C0003DF88DE80F001FBD1EF0040F0CBFEFF3BC
:1011D0000880EFF30980014A104700006F2E0000DD
:1011E0008269034981614FF001001044704700009B
:1011F000F511000001B41EB400B512F0AFFD01B44A
:101200000198864601BC01B01EBD0000F0B4404606
:10121000494652465B460FB402A0013001B506486C
:10122000004700BF01BC86460FBC804689469246F7
:101230009B46F0BC704700000911000020F052BD31
:1012400070B51A4C054609202070A01C00F05FF80C
:101250005920A08029462046BDE8704007F0F1BF24
:1012600007F0FABF70B50C461149097829B1A0F111
:101270006001552908D3012013E0602804D06928B3
:1012800002D043F201000CE020CC0A4E94E80E009C
:1012900006EB8000A0F58050241FD0F8806E284611
:1012A000B047206070BD012070470000080000209A
:1012B0001C0000204C1E020010B504460021012035
:1012C00000F03BF800210B2000F037F80421192032
:1012D00000F033F804210D2000F02FF804210E2037
:1012E00000F02BF804210F2000F027F80421C84358
:1012F00000F023F80621162000F01FF80621152023
:1013000000F01BF82046FFF79BFF002010BD9D2139
:1013100001807047FFF7A4BF10487047104A10B50E
:1013200014680F4B0F4A08331A60FFF79BFF0C48F5
:10133000001D046010BD704770474907090E002862
:1013400006DA00F00F0000F1E02080F8141D70476D
:1013500000F1E02080F800147047000003F900421B
:101360001005024001000001FE48002101604160BB
:10137000018170472DE9F743044692B091464068D9
:1013800012F0B2FF40B1606812F0B7FF20B9607888
:1013900000F00300022801D0012000E00020F14EFF
:1013A0004D463072484612F05BFF18B1102015B060
:1013B000BDE8F0832946012001F029FF0028F6D17D
:1013C00001258DF842504FF4C050ADF84000002286
:1013D00010A9284606F0FAFB0028E8D18DF8425003
:1013E0004FF428504FF00008ADF8400047461C214C
:1013F0006846CDF81C8020F018FC9DF81C0008AA57
:1014000020F00F00401C20F0F00010308DF81C0080
:1014100020788DF81D0061789DF81E0061F3420070
:1014200040F001008DF81E009DF800000AA940F070
:1014300002008DF800002089ADF83000ADF8327060
:10144000608907AFADF834000B97606810AC0E9060
:101450000A94684606F0AFF90028A8D1BDF820002C
:1014600030808DF8425042F60120ADF840009DF8E2
:101470001E0008AA20F00600801C20F001008DF854
:101480001E000220ADF83000ADF8340013A80E9015
:101490000AA9684606F08FF9002888D1BDF8200017
:1014A0007080311D484600F033F9002887D18DF84F
:1014B000425042F6A620ADF840001C216846CDF807
:1014C0001C8020F0B2FB9DF81C00ADF8345020F0D9
:1014D0000F00401C20F0F00010308DF81C009DF82B
:1014E0001D0008AA20F0FF008DF81D009DF81E00C9
:1014F0000AA920F0060040F00100801C8DF81E00B3
:101500009DF800008DF8445040F002008DF8000076
:10151000CDE90A4711A80E90ADF83050684606F0A4
:101520004AF9002899D1BDF82000F08000203EE75C
:101530003EB504460820ADF80000204612F090FEAB
:1015400008B110203EBD2146012001F060FE0028B8
:10155000F8D12088ADF804006088ADF80600A088B6
:10156000ADF80800E088ADF80A007E4801AB6A4695
:101570008088002106F024FDBDF800100829E1D084
:1015800003203EBD1FB50446002002900820ADF8A0
:101590000800CDF80CD0204612F062FE10B11020E9
:1015A00004B010BD6F4802AA81884FF6FF7006F0A4
:1015B0004EFF0028F4D1BDF80810082901D00320FF
:1015C000EEE7BDF800102180BDF802106180BDF883
:1015D0000410A180BDF80610E180E1E701B582B0FA
:1015E0000220ADF800005F4802AB6A464088002147
:1015F00006F0E6FCBDF80010022900D003200EBD65
:101600001CB5002100910221ADF80010019012F0EC
:101610004DFE08B110201CBD52486A4641884FF665
:10162000FF7006F014FFBDF800100229F3D003206C
:101630001CBDFEB54B4C06461546207A0F46C0072A
:1016400005D0084612F00CFE18B11020FEBD0F2088
:10165000FEBDF82D01D90C20FEBD304612F000FE73
:1016600018BB208801A905F0ECFD0028F4D13078E2
:101670008DF80500208801A906F081FC0028EBD137
:1016800000909DF800009DF8051040F002008DF8D4
:101690000000090703D040F008008DF80000208802
:1016A000694606F009FC0028D6D1ADF8085020881C
:1016B0003B4602AA002106F083FCBDF80810A942AF
:1016C000CAD00320FEBD7CB50546002000900190E5
:1016D0000888ADF800000C462846019512F004FE7B
:1016E00018B9204612F0E2FD08B110207CBD15B1FA
:1016F000BDF8000050B11B486A4601884FF6FF70E4
:1017000006F0A5FEBDF8001021807CBD0C207CBD3C
:1017100030B593B0044600200D460090142101A876
:1017200020F083FA1C2108A820F07FFA9DF8000021
:10173000CDF808D020F00F00401C20F0F000103051
:101740008DF800009DF8010020F0FF008DF80100E9
:101750009DF8200040F002008DF8200001208DF857
:10176000460001E0E201002042F60420ADF844000A
:1017700011A801902088ADF83C006088ADF83E00CB
:10178000A088ADF84000E088ADF842009DF8020066
:1017900006AA20F00600801C20F001008DF802004F
:1017A0000820ADF80C00ADF810000FA8059001A9B5
:1017B00008A806F000F8002803D1BDF8180028801A
:1017C000002013B030BD0000F0B5007B059F1E4621
:1017D00014460D46012800D0FFDF0C2030803A204F
:1017E0003880002C08D0287A052806D0287B0128CC
:1017F00000D0FFDF17206081F0BDA889FBE72DE94D
:10180000F04786B0144691F80C900E9A0D46B9F147
:10181000010F0BD01021007B2E8A8846052807D0A7
:10182000062833D0FFDF06B0BDE8F0870221F2E7DB
:10183000E8890C2100EB400001EB400018803320C8
:101840001080002CEFD0E889608100271AE0009614
:10185000688808F1020301AA696900F07AFF06EBC3
:101860000800801C07EB470186B204EB4102BDF87B
:10187000040090810DF1060140460E3210F04CFD3F
:101880007F1CBFB26089B842E1D8CCE73420108019
:10189000E889B9F1010F11D0122148430E301880A8
:1018A000002CC0D0E88960814846B9F1010F00D012
:1018B0000220207300270DF1040A1FE00621ECE747
:1018C0000096688808F1020301AA696900F041FFE7
:1018D00006EB0800801C86B2B9F1010F12D007EBAD
:1018E000C70004EB4000BDF80410C18110220AF1CA
:1018F0000201103020F000F97F1CBFB26089B842AD
:10190000DED890E707EB470104EB4102BDF8040085
:10191000D0810AF102014046103210F0FDFCEBE7E5
:101920002DE9F0470E4688B090F80CC096F80C8070
:10193000378AF5890C20109902F10C044FF0000A47
:10194000BCF1030F08D0BCF1040F3ED0BCF1070F6F
:101950007DD0FFDF08B067E705EB850C00EB4C009E
:10196000188031200880002AF4D0A8F1060000F089
:10197000FF09558125E0182101A820F056F90097AC
:101980007088434601AA716900F0E3FEBDF80400C7
:101990002080BDF80600E080BDF808002081A21C70
:1019A0000DF10A01484610F0B7FCB9F1000F00D064
:1019B00018B184F804A0A4F802A007EB080087B2CD
:1019C0000A346D1EADB2D6D2C4E705EB850C00EB30
:1019D0004C00188032200880002ABBD0A8F10500F6
:1019E00000F0FF09558137E000977088434601AA4F
:1019F000716900F0AEFE9DF80600BDF80410E180AC
:101A00002179420860F3000162F34101820862F328
:101A10008201C20862F3C301020962F304114209A0
:101A200062F34511820962F386112171C009607168
:101A3000BDF80700208122460DF10901484610F04B
:101A40006BFC18B184F802A0A4F800A000E007E045
:101A500007EB080087B20A346D1EADB2C4D279E735
:101A6000A8F1020084B205FB08F000F10E0CA3F807
:101A700000C035230B80002AA6D0558194810097A1
:101A800083B270880E32716900F063FE62E72DE95F
:101A9000F84F1E460A9D0C4681462AB1607A00F531
:101AA0008070D080E089108199F80C000C274FF0ED
:101AB00000084FF00E0A0D2873D2DFE800F09E07F1
:101AC0000E1C28303846556A737373002146484609
:101AD0000095FFF779FEBDE8F88F207B9146082836
:101AE00002D0032800D0FFDF378030200AE000BF9B
:101AF000A9F80A80EFE7207B9146042800D0FFDF99
:101B0000378031202880B9F1000FF1D1E3E7207B45
:101B10009146042800D0FFDF37803220F2E7207B97
:101B20009146022800D0FFDF37803320EAE7207B90
:101B30001746022800D0FFDF3420A6F800A0288036
:101B4000002FC8D0A7F80A80C5E7207B17460428D5
:101B500000D0FFDF3520A6F800A02880002FBAD0E3
:101B60004046A7F80A8012E0207B1746052802D0DD
:101B7000062800D0FFDF1020308036202880002F7C
:101B8000A9D0E0897881A7F80E80B9F80E00B88155
:101B9000A1E7207B9146072800D0FFDF3780372060
:101BA000B0E72AE04FF0120018804FF0380017001D
:101BB000288090D0E0897881A7F80E80A7F810805F
:101BC00099F80C000A2805D00B2809D00C280DD054
:101BD000FFDF80E7207B0C2800D0FFDF01200AE038
:101BE000207B0D2800D0FFDF042004E0207B0E289E
:101BF00000D0FFDF052038736DE7FFDF6BE770B5BE
:101C00000C46054601F076FA20B10078222804D26D
:101C1000082070BD43F2020070BD052128460EF079
:101C20001DFF206008B1002070BD032070BD2DE9AC
:101C3000FF4784B00027824602970798904689465E
:101C400012300AF0E2F8401D20F00306079828B988
:101C500007A95046FFF7D3FF002853D1B9F1000F71
:101C600005D00798017B19BB052504681BE098F88F
:101C70000000092803D00F2812D0FFDF45E00799A4
:101C800003254868B0B3497B42887143914238D9F3
:101C90008AB2B3B2011D0EF03AFD0446078002E09D
:101CA000079C042508340CB1208810B1032D28D0DE
:101CB0002BE00798012112300AF0DFF8ADF80C0094
:101CC000024602AB2946504608F0B1F9070001D19F
:101CD000A01C029007983A461230C8F80400A8F8F1
:101CE00002A003A94046029B0AF0D4F8C0B107281D
:101CF00014D200E005E0DFE800F0060811110F0A39
:101D00000C00132026E6002024E6112022E60820FD
:101D100020E643F203001DE607201BE6032019E638
:101D2000BDF80C002346CDE900702A4650460799BD
:101D300000F035FD57B9032D08D10798B3B2417BA8
:101D4000406871438AB2011D0EF0F5FCB9F1000F35
:101D5000D9D0079981F80C90D5E72DE9FE4F91462F
:101D60001A881C468A468046FAB102AB494608F0FA
:101D70005EF9050019D04046A61C27880EF08AFFA0
:101D80003246072629463B4600960EF049FB20883E
:101D90002346CDE900504A465146404600F0FFFC3C
:101DA000002020800120BDE8FE8F0020FBE710B559
:101DB00086B01C46AAB104238DF800301388ADF814
:101DC00008305288ADF80A208A788DF80E200988EC
:101DD000ADF80C1000236A462146FFF728FF06B035
:101DE00010BD1020FBE770B50D4605210EF036FE44
:101DF000040000D1FFDF294604F11200BDE8704065
:101E00000AF024B82DE9F8430D468046002607F075
:101E1000CCFA0446287812287BD2DFE800F07A5406
:101E2000543C355632321332323209323232323287
:101E30002879001FC0B2022801D0102810D114BB8D
:101E4000FFDF35E004B9FFDF052140460EF006FE56
:101E5000007B032806D004280BD0072828D0FFDFFA
:101E6000072657E02879801FC0B2022820D050B141
:101E7000F6E72879401FC0B2022819D0102817D0E1
:101E8000EEE704B9FFDF13E004B9FFDF287901288A
:101E90000ED1172139E0052140460EF0DFFD070085
:101EA00000D1FFDF07F11201404609F0A6FF2CB177
:101EB0002A462146404600F05CFC2BE013214046B8
:101EC00002F0AAFC26E0FFDF24E004B9FFDF0521D1
:101ED00040460EF0C3FD060000D1FFDF694606F163
:101EE000120009F094FF060000D0FFDFA98817292F
:101EF00001D2172200E00A46BDF80000824202D952
:101F0000014602E005E01729C3D3404600F057FC24
:101F1000CEE7FFDF3046BDE8F883401D20F0030226
:101F200019B102FB01F0001D00E0002010447047D1
:101F300013B5009850B100244FEA0D000EF091FB4C
:101F4000002C02D1F84A009911601CBD0124002028
:101F5000F4E72DE9F0470C461546242120461FF0F2
:101F600064FE05B9FFDFA87860732888DFF8B8A39E
:101F7000401D20F00301AF788946DAF800000EF02A
:101F80008EFB060000D1FFDF4FF000082660A6F8A8
:101F9000008077B109FB07F1091D0AD0DAF80000CB
:101FA0000EF07DFB060000D1FFDF6660C6F8008002
:101FB00001E0C4F80480298804F11200BDE8F0476C
:101FC00009F00DBF2DE9F047804601F112000D46E2
:101FD000814609F01AFF401DD34F20F003026E7BAB
:101FE0001446296838680EF085FB3EB104FB06F202
:101FF000121D03D0696838680EF07CFB05200EF0D6
:10200000D7FC044605200EF0DBFC201A012802D183
:1020100038680EF039FB49464046BDE8F04709F004
:10202000F3BE70B5054605210EF018FD040000D181
:10203000FFDF04F112012846BDE8704009F0DDBE63
:102040002DE9F04F91B04FF0000BADF834B0ADF882
:1020500004B047880C4605469246052138460EF0E6
:10206000FDFC060000D1FFDF24B1A780A4F806B074
:10207000A4F808B0297809220B20B2EB111F297AA5
:102080007DD104F110023827C91E4FF00C094FF022
:10209000010803920F2973D2DFE801F0F4F3F28113
:1020A00008D48A8FA13DDDF5F0B8B800307B022856
:1020B00000D0FFDFA88909EBC001ADF80410302182
:1020C000ADF83410002C25D06081B5F80E900027B3
:1020D0001DE004EBC708317C88F80E10F189A8F8E0
:1020E0000C10CDF800906888042304AA296900F038
:1020F00030FBBDF81010A8F8101009F10400BDF86D
:1021000012107F1C1FFA80F9A8F81210BFB2608964
:10211000B842DED80FE1307B022800D0FFDFE9892A
:1021200009EBC100ADF804003020ADF83400287B85
:102130000A90001FC0B20F90002CEBD06181B5F85F
:102140001090002727E000BFCDF8009068886969EB
:1021500003AA0A9B00F0FDFA0A9904EBC70809EBF1
:1021600001001FFA80F908F10C0204A90F9810F081
:10217000D3F818B188F80EB0A8F80CB001E0D7E099
:10218000D4E0BDF80C10A8F81010BDF80E107F1C9C
:10219000A8F81210BFB26089B842D5D8CBE00DA81C
:1021A000009001AB224629463046FFF728FBC2E0EB
:1021B000307B082805D0FFDF03E0307B082800D003
:1021C000FFDFE8891030ADF804003620ADF83400A8
:1021D000002C3FD0A9896181F189A18127E0307B62
:1021E000092800D0FFDFA88900F10C01ADF8041028
:1021F0003721ADF83410002C2CD06081E889009094
:10220000AB89688804F10C02296956E0E889392114
:10221000103080B2ADF80400ADF83410002C74D04A
:10222000A9896181287A10280AD002212173E989BD
:10223000E181288A0090EB8968886969039A3CE00B
:102240000121F3E70DA8009001AB22462946304654
:10225000FFF766FB6FE0307B0A2800D0FFDF12201B
:10226000ADF80400ADF834704CB3A9896181A4F8CD
:1022700010B0A4F80EB084F80C805CE020E002E01E
:1022800031E039E042E0307B0B2800D0FFDF288AC4
:10229000ADF834701230ADF8040084B1042121731C
:1022A000A9896181E989E181298A2182688A00906E
:1022B0002B8A688804F11202696900F04AFA3AE050
:1022C000307B0C2800D0FFDF1220ADF80400ADF801
:1022D00034703CB305212173A4F80AB0A4F80EB001
:1022E000A4F810B027E00DA8009001AB22462946C3
:1022F0003046FFF769FA1EE00DA8009001AB2246B8
:1023000029463046FFF7C3FB15E036E03B21ADF828
:102310000400ADF8341084B3A4F80680A4F808B023
:1023200084F80AB007E0000010000020FFDF02E0A0
:10233000012919D0FFDFBDF80400AAF800007CB124
:10234000BDF834002080BDF804006080BDF8340082
:10235000392805D03B2803D03C2801D086F80CB0A2
:1023600011B00020BDE8F08F3C21ADF80400ADF8BD
:10237000341014B1697AA172DDE7FFE7AAF8000012
:10238000EEE72DE9F84356880F46804615460521AD
:1023900030460EF063FB040000D1FFDF12340094DE
:1023A0003B46414630466A6809F02EFFB3E570B5FA
:1023B0000D4605210EF052FB040000D1FFDF294637
:1023C00004F11200BDE8704009F02CBD70B50D4657
:1023D00005210EF043FB040000D1FFDF294604F184
:1023E0001200BDE8704009F050BD70B505460521EA
:1023F0000EF034FB040000D1FFDF04F10803214696
:102400002846BDE870400422A7E470B505460521C2
:102410000EF024FB040000D1FFDF2146284623688C
:10242000BDE87040052298E470B5064605210EF01F
:1024300015FB040000D1FFDF04F1120009F0E5FCF8
:10244000401D20F0030511E0011D00880322431800
:1024500021463046FFF781FC00280BD0607BABB2F1
:10246000684382B26068011D0EF09BF96068418884
:102470000029E9D170BD70B50E46054606F095FFFE
:10248000040000D1FFDF0120207266726580207891
:1024900020F00F00C01C20F0F00030302070BDE8AC
:1024A000704006F085BF2DE9F0438BB00D46144611
:1024B000814606A9FFF7A3FB002814D14FF6FF764B
:1024C00001274FF420588CB103208DF80000102014
:1024D000ADF8100007A8059007AA204604A90FF040
:1024E0003AFF78B107200BB0BDE8F0830820ADF8C3
:1024F00008508DF80E708DF80000ADF80A60ADF848
:102500000C800CE00698A17801742188C1818DF8B7
:102510000E70ADF80850ADF80C80ADF80A606A4650
:1025200002214846069BFFF782FBDCE708B5012243
:102530008DF8022042F60202ADF800200A4603237D
:102540006946FFF734FC08BD08B501228DF802206A
:1025500042F60302ADF800200A4604236946FFF75D
:1025600026FC08BD00B587B079B102228DF80020A5
:102570000A88ADF808204988ADF80A1000236A4699
:102580000521FFF754FB07B000BD1020FBE709B1A0
:1025900007230CE40720704770B588B00D46144639
:1025A000064606A9FFF72BFB00280ED17CB10620BA
:1025B000ADF808508DF80000ADF80A40069B6A4659
:1025C0000821DC813046FFF732FB08B070BD0520E2
:1025D0008DF80000ADF80850F0E700B587B059B1AC
:1025E00007238DF80030ADF80820039100236A46D8
:1025F0000921FFF71CFBC6E71020C4E770B588B0BF
:102600000C460646002506A9FFF7F9FA0028DCD19A
:1026100006980121123009F030FC9CB1217806297E
:1026200021D2DFE801F0200505160318801E80B2D4
:10263000C01EE28880B20AB1A3681BB1824203D9EE
:102640000C20C2E71020C0E7042904D0A08850B9AC
:1026500001E00620B9E7012913D0022905D0042999
:102660001CD005292AD00720AFE709208DF80000EB
:102670006088ADF80800E088ADF80A00A068039013
:1026800023E00C208DF800006088ADF80800E08899
:10269000ADF80A00A0680A25039016E00D208DF819
:1026A00000006088ADF80800A088ADF80A00E08856
:1026B000ADF80C00A0680B25049006E00E208DF804
:1026C000000060788DF808000C256A4629463046DF
:1026D000069BFFF7ACFA78E700B587B00F228DF8BC
:1026E0000020ADF8081000236A461946FFF79FFA4C
:1026F00049E700B587B071B102228DF800200A8841
:10270000ADF808204988ADF80A1000236A46062172
:10271000FFF78DFA37E7102035E770B586B006462B
:1027200001200D46ADF808108DF800000146002389
:102730006A463046FFF77BFA040008D12946304646
:1027400005F058FC0021304605F072FC204606B02A
:1027500070BDF8B51C4615460E46069F0EF088FA69
:102760002346FF1DBCB231462A4600940DF01FFEE1
:10277000F8BD10B548800878144620F00F00C01C42
:1027800020F0F00090300B4608701822214603F12B
:1027900008001FF0F6F9BDE8104006F009BE30B49D
:1027A0001146DDE902423CB1032903D0002330BCCD
:1027B00008F0D3BA0123FAE71A8030BC704770B52D
:1027C0000C460546FFF70FFB2146284605F021FC85
:1027D0002846BDE87040012105F02ABC4FF0E022F8
:1027E0004FF400410020C2F88011204908702049B0
:1027F00090020860704730B51C4D04462878A0420E
:1028000018BF002C02D0002818BFFFDF2878A04294
:1028100008BF30BD2C701749154A0020ECB1164D89
:10282000DFF858C0131F012C0DD0022C1CBFFFDF96
:1028300030BD086003200860CCF800504FF4000061
:102840001060186030BD086002200860CCF80050AD
:102850004FF040701060186030BD086008604FF0A5
:102860006070106030BD00B5FFDF00BD18000020B3
:1028700008F5014000F500402403002014F5004055
:1028800070B50B2000F0B5F9082000F0B2F9002176
:102890000B2000F0C4F90021082000F0C0F9EC4C36
:1028A00001256560A5600020C4F84001C4F844011A
:1028B000C4F848010B2000F0A7F9082000F0A4F9A3
:1028C0000B2000F08BF9256070BD10B50B2000F0D7
:1028D00090F9082000F08DF9DD4801214160816008
:1028E000DC490A68002AFCD10021C0F84011C0F878
:1028F0004411C0F848110B2000F086F9BDE81040E3
:10290000082000F081B910B50B2000F07DF9BDE87A
:102910001040082000F078B900B530B1012806D089
:10292000022806D0FFDF002000BDCB4800BDCB4809
:1029300000BDCA48001D00BD70B5C9494FF0004038
:102940000860C84DC00BC5F80803C74800240460E0
:10295000C5F840410820C43500F04BF9C5F83C41AA
:10296000C248047070BD08B5B94A002128B10128D9
:1029700011D002281CD0FFDF08BD4FF48030C2F810
:102980000803C2F84803B3483C300160C2F8401164
:10299000BDE80840D0E74FF40030C2F80803C2F8A1
:1029A0004803AC4840300160C2F84411AB480CE029
:1029B0004FF48020C2F80803C2F84803A548443009
:1029C0000160C2F84811A548001D0068009008BDCC
:1029D00070B516460D460446022800D9FFDF0022D6
:1029E0009B48012304F110018B4000EB8401C1F8E6
:1029F000405526B1C1F84021C0F8043303E0C0F8C7
:102A00000833C1F84021C0F8443370BD2DE9F041CE
:102A10001C46154630B1012834D0022839D0FFDFDA
:102A2000BDE8F081891E002221F07F411046FFF7AA
:102A3000CFFF012C24D000208C4E8A4F01247070CF
:102A40003C61894900203C3908600220091D08606A
:102A5000854904203039086083483D350560C7F852
:102A60000042082000F0D0F82004C7F80403082032
:102A700000F0B4F87A49E007091F08603470CFE726
:102A80000120D9E7012B02D00022012005E001221C
:102A9000FBE7012B04D000220220BDE8F04197E7BC
:102AA0000122F9E76B480068704770B500F0C7F87D
:102AB000674C0546D4F840010026012809D1D4F816
:102AC0000803C00305D54FF48030C4F80803C4F8E8
:102AD0004061D4F8440101280CD1D4F808038003E4
:102AE00008D54FF40030C4F80803C4F8446101204D
:102AF00010F0F6FBD4F8480101280CD1D4F80803F3
:102B0000400308D54FF48020C4F80803C4F8486196
:102B1000022010F0E5FB5648056070BD70B500F06E
:102B20008EF8524D0446287858B1FFF705FF6878B3
:102B300020B1002085F8010010F0D2FB4C48046061
:102B400070BD0320F8E74FF0E0214FF40010C1F80A
:102B500000027047152000F057B842490120086173
:102B6000082000F051B83F494FF47C10C1F8080329
:102B70000020024601EB8003C3F84025C3F8402142
:102B8000401CC0B20628F5D37047410A43F60952EB
:102B90005143C0F3080010FB02F000F5807001EB18
:102BA0005020704710B5430B48F2376463431B0C49
:102BB0005C020C602F4C03FB04002F4B4CF2F724FB
:102BC00043435B0D13FB04F404EB402000F58070DD
:102BD0004012107008681844086010BD00F01F0211
:102BE000012191404009800000F1E020C0F800116F
:102BF000704700F01F02012191404009800000F160
:102C0000E020C0F88011704700F01F0201219140C0
:102C10004009800000F1E020C0F8801270474907A9
:102C2000090E002806DA00F00F0000F1E02080F81D
:102C3000141D704700F1E02080F8001470470C4824
:102C4000001F00680A4A0D49121D116070470000FC
:102C500000B0004004B500404081004044B1004055
:102C600008F501400080004040850040340000200D
:102C700014050240F7C2FFFF6F0C010001000001C4
:102C80000A4810B50468094909480831086010F07D
:102C9000BBFB0648001D046010BD0649002008600B
:102CA0004FF0E0210220C1F8800270471005024079
:102CB00001000001FC1F004010B50D2000F06FF86E
:102CC000C4B26FF0040000F06AF8C0B2844200D0D1
:102CD000FFDF3A490120086010BD70B50D2000F0FB
:102CE00048F8374C0020C4F800010125C4F804530B
:102CF0000D2000F049F825604FF0E0216014C1F884
:102D0000000170BD10B50D2000F033F82C480121F2
:102D100041600021C0F80011BDE810400D2000F016
:102D200033B8284810B50468264927480831086098
:102D30002349D1F80001012804D0FFDF2148001DFC
:102D4000046010BD1D48001D00680022C0B2C1F81B
:102D5000002110F074FFF1E710B51948D0F8001108
:102D60000029FBD0FFF7DDFFBDE810400D2000F08B
:102D70000BB800F01F02012191404009800000F1D2
:102D8000E020C0F88011704700F01F02012191403F
:102D90004009800000F1E020C0F880127047002850
:102DA00006DA00F00F0000F1E02090F8140D03E0C7
:102DB00000F1E02090F800044009704704D500407D
:102DC00000D00040100502400100000110B5202095
:102DD00000F075F8202000F07DF84449202081F8AB
:102DE0000004434900060860091D42480860FEF7D8
:102DF00093FA3F49C83108603F48D0F8041341F0C6
:102E00000101C0F80413D0F8041341F08071C0F838
:102E10000413364901201C39C1F8000110BD10B55A
:102E2000202000F04CF8324800210160001D0160B4
:102E30002F4A481EE83A10602F4AC2F808032C4B6C
:102E4000C8331960C2F80001C2F860012B4908605C
:102E5000BDE81040202000F03DB825492848EC3955
:102E60000860704722492648E8390860704770B505
:102E70001F4A8069E83A224911601F49D1F8006170
:102E80000023204D1D4A5C1E1EB1A84206D300211E
:102E90000FE0D1F8606186B1A84209D2C1F80031D3
:102EA000C1F860311460BDE87040202000F012B815
:102EB0001168BDE870401EF0E3BEFFDF70BD00F09A
:102EC0001F02012191404009800000F1E020C0F87C
:102ED0008011704700F01F020121914040098000DD
:102EE00000F1E020C0F880127047000020E000E010
:102EF000000602406413002000000240000402406B
:102F000001000001003002000F4A12680D498A4298
:102F10000CD118470C4A12680A4B9A4206D101B5E7
:102F200010F00EFFFFF799FFBDE80140074909685F
:102F30000958084706480749054A064B70470000EC
:102F400000000000BEBAFECAB0000020040000204D
:102F5000E8120020E812002070B50C46054609F082
:102F6000F0FA21462846BDE870400AF0E2BB10B5F1
:102F700011F054FBFFF732FC11F0F0F9BDE81040FE
:102F800011F0A2BA01208107086070470120810773
:102F90004860704712480068C00700D001207047A1
:102FA0000F48001F0068C00700D0012070470C4880
:102FB00008300068C00700D0012070470848103072
:102FC0000068704706490C310A68D20306D50968C3
:102FD00001F00301814201D10120704700207047B8
:102FE0000C0400407047704770477047704702F00C
:102FF000FF0343EA032242EA02421EF0F6BD704795
:103000002CFFFFFFDBE5B151003002009D00FFFF08
:1030100084000000404B4C0066D342DA82CFB49D5E
:10302000E40AD77E68976592800939FF30B5FF4D75
:10303000044610280AD0112C06D02846122CC1783C
:1030400006D0132C08D0FFDFEC7030BDFFDFFBE7AC
:103050001129F9D0FFDFF7E71129F5D0FFDFF3E7FA
:1030600070B50FF0E3FA044610F0A0FC201AC4B2C9
:1030700006200DF09DFC054606200DF0A1FC2E1A41
:1030800007200DF095FC054607200DF099FCE74957
:10309000281A3218C87812280DD000231A44132891
:1030A0000BD0002002440878022808D000201044E9
:1030B000201AC0B270BD0123F0E70120F2E7012021
:1030C000F5E7DA4800B58079D849420897B051F859
:1030D000070F89880CD017228DF80020CDF8020048
:1030E000ADF806100BA968460AF0B4FF17B000BD92
:1030F0004422F1E702210DF0B1BC2DE9F04196B078
:103100001D4690460E460746FFF7F4FF04000BD01D
:103110002078222804D3A07FC0F34010A84206D113
:10312000082016B0BDE8F08143F20200F9E749201B
:103130008DF80000ADF802703DB101208DF804005B
:103140008DF805608DF8068002E000208DF80400FF
:103150000BA968460AF07EFFA07F65F34510A077B3
:103160000020DEE730B50446A1F120000D460A2814
:103170004AD2DFE800F005070C1C2328353A3F440B
:10318000FFDF42E0207820283FD1FFDF3DE0A74865
:103190000178032939D0C078132836D02078242824
:1031A00033D0252831D023282FD0FFDF2DE0207801
:1031B00022282AD0232828D8FFDF26E020782228BA
:1031C00023D0FFDF21E0207822281ED024281CD025
:1031D00026281AD0272818D0292816D0FFDF14E077
:1031E0002078252811D0FFDF0FE0207825280CD08B
:1031F000FFDF0AE02078252807D0FFDF05E02078F0
:10320000282802D0FFDF00E0FFDF257030BD30B599
:103210000B8840F67B444FF6FF72022801D09342A0
:1032200004D09D1FA54224D2022802D04D88954289
:1032300003D04D88AD1FA5421BD24C88A34218D89D
:103240008B88B3F5FA7F14D2022802D0C888904246
:1032500005D0C88840F677450A38A84209D2C88800
:10326000904208D0944206D05B1C6343B3EB800FBE
:1032700001DB072030BD002030BD70B514460D467F
:10328000064610F0EDFF60B90DB1A54201D90C2042
:1032900070BD002409E000BF56F8240010F0E0FFE4
:1032A00008B1102070BD641CE4B2AC42F4D300201D
:1032B00070BDF0B50024059D10B1A94203D850E0BF
:1032C00009B90020F0BD0920F0BD055DD5B1071991
:1032D00097F801C0BCF1150F2DD03BDCBCF1150FE8
:1032E00038D2DFE80CF037122020262628282F2F8E
:1032F000373737373737373737372000025D22BB4C
:10330000641CE4B28C42F9D3DBE7022DDBD1BD783B
:103310001D70072D01D26D0701D40A20F0BD15786C
:1033200045F0010515E0EF43FF0707E0012D07D049
:1033300010E00620F0BD2F07A7F18057002FF5D031
:103340003046F0BD1578AF0701D50B20F0BD45F034
:1033500002051570055D641C2C44E4B28C4202D950
:10336000B1E74FF448568C42AFD3AAE710B50278C4
:10337000540809D0012243F20223012C07D0022C69
:103380000DD0032C13D10FE00020087005E08079E8
:103390000324B4EB901F0AD10A70002010BD80797D
:1033A000B2EB901F03D1F7E780798009F4D018467B
:1033B00010BD1E4A117C39B1517C022908D0032965
:1033C00008D043F2022070470146901D01F0FCBC7A
:1033D000032100E0012101700020704738B50C4640
:1033E0000546694601F0F0FC00280DD19DF800105B
:1033F000207861F34700207055F8010FC4F80100F0
:10340000A888A4F80500002038BD38B51378E8B1C5
:1034100002281BD006A46D46246800944C7905EB65
:103420009414247864F34703137003E0CC01002064
:103430000302FF0103280ED003F0FE00107008689D
:10344000C2F801008888A2F8050038BD23F0FE0309
:1034500013700228E9D1D8B240F00100EEE730B590
:103460000C46097897B0222902D2082017B030BD47
:1034700028218DF80010ADF80200132A03D03B2A52
:1034800001D00720F2E78DF804200BA968460AF066
:10349000E1FD050003D121212046FFF763FE284608
:1034A000E4E700B597B023218DF80010ADF80200D5
:1034B0001088ADF804005088ADF80600D088ADF84B
:1034C0000A009088ADF808000020ADF80C00ADF8B7
:1034D0000E000BA968460AF0BDFD07E600B597B0DF
:1034E0002C22FA4968461EF04CFB0020CDF8030060
:1034F000ADF80700F648007C022801D0012000E06A
:1035000000208DF809000BA968460AF0A3FD0028E9
:1035100000D0FFDFEAE52DE9FF470220EC4E8DF8F1
:1035200004000027B08AADF80600B84643F202094D
:103530004DE001A80DF0FBF9050006D0B08AA8B354
:10354000A6F81480ADF806803FE0039CA07F010739
:103550002DD504F124000090A28EBDF8080021466C
:1035600004F1360301F00DFE050005D04D452BD0CA
:10357000112D3DD0FFDF3BE0A07F20F00800A077B9
:10358000E07F810861F30000C10861F34100E0774A
:1035900094F8210000F01F0084F8200020782828EB
:1035A00027D129212046FFF7DDFD22E015E0400765
:1035B0000BD5BDF80800214604F10E02FFF771FF9C
:1035C00005000DD04D4510D100257F1CFFB2022013
:1035D0000DF0EEF9401CB842ABD8052D12D008E032
:1035E000A07F20F00400A07703E0112D00D0FFDFC2
:1035F0000025BDF80600B082052D05D0284604B090
:10360000BDE8F087A6F814800020F8E770B50646FC
:10361000FFF770FD054605F0C8FE040000D1FFDF8E
:103620006680207820F00F00801C20F0F000203011
:1036300020700620207295F83E006072BDE8704050
:1036400005F0B6BE2DE9F04786B0040000D1FFDFDB
:1036500020789F4E20F00F00801C20F0F00070308A
:10366000207060680178091F182931D2DFE801F065
:10367000FD30303053FC300CFCFC40FD3030FD762A
:10368000FDFD3030FDFDFBFA86883046FFF732FD48
:103690000546304607F05FFAE0B16068807985F84A
:1036A0003E0021212846FFF75DFD3046FEF7B9FCBC
:1036B000304603F0C3FF3146022010F085FDA87F9D
:1036C00020F01000A877FFF726FF002800D0FFDFCA
:1036D00006B095E7207820F0F0002030207006201A
:1036E0002072668060688079607205F061FED8E7BC
:1036F00085882846FFF7FEFC00B9FFDF6068807808
:10370000012800D0FFDF6068817906B02846BDE857
:10371000F04707F0FDBD86883046FFF7EBFC05005B
:1037200000D1FFDF05F044FE60683146C088288183
:1037300060680089688160684089A881022010F073
:1037400043FD0020A875A87F00F003000228BFD128
:10375000FFF7E1FE0028BBD0FFDFB9E780783C2807
:1037600003D0002502280AD000E00125002720B15F
:103770003C2802D0022800D0FFDF17B1B8E00127B3
:10378000F5E705F015FE1DB1B07801F0DCFAA1E017
:103790006568B5F804A0A879AD1C012806D0307979
:1037A000814605F097FB070003D101E0B078F7E709
:1037B000FFDF0022022150460DF047F9040000D13E
:1037C000FFDF22212046FFF7CDFC2879012800D019
:1037D0000220A17F804668F30101A177288B208118
:1037E000688B6081A88BA08184F822908DF8088076
:1037F000B8680090F86801906A46032150460DF0C1
:1038000024F900B9FFDFB888ADF81000B8788DF85A
:10381000120004AA052150460DF017F900B9FFDF88
:10382000B888ADF80C00F8788DF80E0003AA0421D2
:1038300050460DF00AF900B9FFDF062105F112002C
:1038400001F0EDFA28B36879800700D5FFDF6979C8
:10385000E07D61F34700E075D5F80600A061688956
:10386000A08303E05EE057E050E062E0062105F14E
:103870000C0001F0D4FAB0B1B0794108607861F37E
:1038800047006070D6F80700C4F80200B6F80B00D5
:1038900012E0E07D20F0FE00801CE075D5F81200FB
:1038A000A061E88ADCE7607820F0FE00801C607090
:1038B000E868C4F80200288AE080B8F1010F09D056
:1038C000B8F1020F14D0FFDF02E70000CC1F0200A6
:1038D000CC0100203078032800D0FFDF002108460B
:1038E00010F072FC06B00120BDE8F04701F0FAB913
:1038F000F078132800D0FFDF0021062010F064FCD0
:1039000006B01120BDE8F047FFF790BB06B0204697
:10391000BDE8F04701F0E6BE05F04AFDB07C40F09E
:10392000020004E005F044FDB07C40F00400B074F7
:10393000CEE606B0BDE8F04705F03ABD2DE9F04708
:1039400005460078914600270209FF480C463E468E
:10395000012A6DD000234FF6FF71022A69D0072A91
:1039600009D00A2A71D0FFDFA9F800600CB12780C6
:103970006680002044E6D5F804C09CF80060142E50
:103980007DD010DC04F1080204F118080F2E21D0BC
:1039900004DC042E5AD0082E57D10DE0122E6FD021
:1039A000132EF9D11FE0153E072E4ED2DFE806F0A8
:1039B000C14D4D099FEAB00012271026BCF8040043
:1039C00014E11C27092694B3BCF80200A0806868A3
:1039D00000795AE11B2709264CB30320207268683E
:1039E0004088A080C0E79CF802003C2827D0102720
:1039F00018260CF1020CD4B1BCF80200A080BCF86F
:103A000018006082BCF818002082BCF81A00A0825E
:103A1000BCF81C00E0829CF805000CF10601FFF7E1
:103A2000F4FC9CF8040028B10120E0739CE703E05B
:103A3000BFE0DFE00220F8E7A9F8006099E71B2764
:103A40000926002CF8D023728EE720E11D273726A7
:103A5000002CF1D0A18069680879491DFFF7D5FCD9
:103A6000686890F82B00A0756868C0780428E07D2D
:103A700016D020F00100E0756968C97801E06DE0BA
:103A800011E061F34200E07569681F22C97A61F3B1
:103A9000C700E075696840460C311EF02DF863E7F9
:103AA00040F00100E7E71D273726002CC4D0A18095
:103AB0006868411D0079FFF7A8FC696804F10F02EE
:103AC00001F10C00CB7A01461846FFF79EFC6868AE
:103AD000807CA0756868C178E07D61F3420020F0C9
:103AE000F900E0751F2140461EF09FF83CE72027B3
:103AF0001026002CA0D0A180686804F10902407A49
:103B000020726968CB1C88781946FFF77EFC2BE78A
:103B100021270A26002C8FD0BCF80210A1806968EA
:103B200009792172696849796172817C21F0040107
:103B300057E022270B26002C84D0BCF80400A0807C
:103B40006868807820726868807901F077F960721F
:103B50006868C07901F072F9A07205E72427102681
:103B6000002CA3D0BCF80200A080686800792081F6
:103B70006868007A60816868C088A0816868408948
:103B8000E081F1E623271026002C8FD0BCF802102C
:103B9000A1806968898821816968C98861816968AB
:103BA0000989A18169684989E181817C21F002014B
:103BB00017E0297A012903D0022914D0FFDFD3E6C8
:103BC0001F271026002C95D06988A180A989218102
:103BD000E9896181298AA181698AE181817C21F059
:103BE00001018174C0E6122768881026214601F081
:103BF00003F9B9E6287A072850D2DFE800F0373D0C
:103C00003D484848040011270926002C94D0B5F8F7
:103C100002804046FFF76EFA90F822A0A4F80480D4
:103C2000687A2072042140460CF02AFF05214046A4
:103C30000CF026FF002140460CF022FF01214046F7
:103C40000CF01EFF032140460CF01AFF02214046F3
:103C50000CF016FF062140460CF012FF07214046EB
:103C60000CF00EFF504601F06EF87DE61B2709268A
:103C7000002C8AD0A180E6E61B270926002C84D0E0
:103C8000A180287A012800D0022020726CE64A46E2
:103C900021462846BDE8F04701F0AFBEFFDF63E6EE
:103CA00030B5294D97B0E878132802D0082017B016
:103CB00030BD22208DF800000BA968460AF0CAF931
:103CC000040002D1287901F03EF80021062010F00E
:103CD0007BFA2046EBE700B51B4897B0C078122866
:103CE00001D0082016E41E208DF8000000208DF879
:103CF00002008DF803000BA968460AF0ABF9002812
:103D0000F0D10021062010F05FFA1120FFF78EF9A4
:103D10000020E7E710B50C4C96B02078012815D0AC
:103D20001B208DF8000000208DF802000BA96846CA
:103D30000AF090F900280AD10021084610F044FA50
:103D40002078032805D007E0CC010020082016B019
:103D500010BDA07800F0F7FF012000F0C3FF0020A5
:103D6000F5E770B5002538B1022817D0062836D0FF
:103D7000072800D0FFDF70BDFFF7CCFF0028FAD185
:103D800005F013FB0028F6D0017821F00F01891C03
:103D900021F0F0012031017005723FE08EB2304613
:103DA000FFF7A8F9040000D1FFDF20782128E2D036
:103DB00005F0FBFA60B1017821F00F01891C21F0B8
:103DC000F00110310170022101724680A57525E0D5
:103DD00021463046BDE870401322FFF740BBFE4845
:103DE000C478122C03D0132C04D0FFDF70BDFFF772
:103DF00072FF01E0FFF754FF0028F7D105F0D5FA74
:103E00000028F3D0017821F00F01891C21F0F00186
:103E100020310170122C05D002210172BDE87040E2
:103E200005F0C6BA0121F8E72DE9F04116460C006D
:103E3000804600D1FFDF307820F00F00801C20F09A
:103E4000F000103030702078012804D0022817D0FC
:103E5000FFDFBDE8F0814046FFF74CF9050000D1D7
:103E6000FFDF0320A87505F0A3FA94E80F000836D9
:103E700086E80F00D848817C41F001018174E8E7B1
:103E80004046FFF737F9050000D1FFDFA1884FF664
:103E9000FF700027814202D1E288824203D0814232
:103EA00001D1E08840B105F083FA94E80F000836AC
:103EB00086E80F00AF75CCE7A87D0128C9D178232B
:103EC00000224146022010F0D5F80220A875C0E774
:103ED00030B5054697B00C46084610F0C1F978BBDE
:103EE00000210120203D072D73D2DFE805F00425D5
:103EF0004C515A6640000021072010F03BF908B1F0
:103F00001120D4E624208DF80000D4F80200CDF86A
:103F10000200A0798DF806000BA968460AF09AF80D
:103F2000050057D1002208231146072010F0A2F8FF
:103F300007284FD0FFDF4DE0606810F0D5F908B1D9
:103F40001020B4E64A208DF800002088ADF8020069
:103F50006088ADF804000BA968460AF07BF80500FC
:103F600038D1606898B3BDF83010018032E04C2041
:103F70008DF800002088ADF80200A07800F0010064
:103F80008DF8040014E0206801F0D5FF054621E01B
:103F90004B2207E08DF802000AE000BF8DF8021006
:103FA00006E046228DF800202278D207F6D0F1E70D
:103FB0000BA968460AF04EF8E8E738208DF80000B3
:103FC0002088ADF802006088ADF80400F0E701E059
:103FD000FFE7072528466AE630B5054697B00C4648
:103FE000084610F063F908B1102060E6203D072D67
:103FF00027D2DFE805F00424242426262400208884
:10400000FFF778F820B10078222804D208204EE685
:1040100043F202004BE625208DF800002088ADF821
:1040200002000BA968460AF015F80028DDD1DDF87A
:104030003210C4F802109DF83610A17137E6062040
:1040400035E6072033E66448801D704738B51621F1
:1040500061481DF0C8FD012000F044FE1120FEF76C
:10406000E5FF5D4C6846E11D05F0FFF89DF8001086
:10407000A07961F3470020F00100A07100202074B6
:104080004FF46170E08102206074FFF71AF800B10C
:10409000FFDFFDF769F901F0E2FA38BD10B50C4613
:1040A000402120461DF09FFDA07F20F00300A07757
:1040B000202020700020A07584F8230010BD7047D8
:1040C0007CB5054610F0CCF808B110207CBD424C00
:1040D000A11DD4F806000090D4F80A0001902846EB
:1040E000FFF77CF90028F1D1FEF7EBFF0028EDD0B7
:1040F0000099C4F80610BDF8041061819DF80610FF
:1041000021737CBD10B5044610F0D0F808B1102022
:1041100010BD314922468879C91D4008FFF775F95D
:10412000002010BD2DE9F0479CB00D4604004FF073
:10413000000812D00822FFF7A0F800281CD10026A2
:1041400009E000BF54F8260004A9FFF70FF9002882
:1041500012D1761CF6B2AE42F4D32F460A2006AD39
:104160000DF1440A8DF8180026465146284609F0FC
:1041700071FF20B143F203201CB0BDE8F087404638
:10418000DFF8548088F805002EB300244FF00B09A7
:104190001DE000BF56F8240005A9FFF7E7F800B1BD
:1041A000FFDF9DF81400A87056F8240050F8011F96
:1041B000C5F803108088A5F8070085F800905146DF
:1041C000284609F047FF00B1FFDF641CE4B2BC429F
:1041D000E0D388F8057001E0CC0100200020CBE797
:1041E0002DE9F0479EB01546894604001DD00F46C4
:1041F00008222946FFF741F8002810D1002612E0D6
:1042000054F8260005A9103000F0DEFD002806D184
:104210003FB157F8260010F023F810B110201EB05F
:10422000ABE7761CF6B2AE42EAD30026A5F1010850
:104230001CE000BF06F1010A0AF0FF0712E000BF10
:1042400054F82600017C4A0854F827100B7CB2EB86
:10425000530F05D10622113011311DF021FC78B128
:104260007F1CFFB2AF42EBD30AF0FF064645E1DB0D
:10427000C8462E4607AD0DF1480924B1012003E0E0
:1042800043F20520CBE700208DF81E0031208DF889
:104290001C004946284609F0DDFE38B934208DF867
:1042A0001C004946284609F0D5FE10B143F204200F
:1042B000B5E77CB300272BE054F82700A91C103089
:1042C00000F082FD00B1FFDF54F82700102250F803
:1042D000111FC5F803108088A5F8070054F82710AF
:1042E00005F109001DF008FCB8F1000F16D058F8D0
:1042F0002710102205F119001DF0FEFB3220287056
:104300004946284609F0A6FE00B1FFDF7F1CFFB238
:10431000B742D1D3FFF7E2F8002080E705F119009A
:1043200001F0FDFDEAE770B596B004460FF098FF86
:1043300018B960680FF0E1FF10B1102016B070BD21
:1043400060884AF2B811884207D82078FE4D6E4640
:1043500028B1012806D0022804D00720EEE7FEF796
:10436000B0FE1AE06078022804D0032802D043F29D
:104370000220E3E7687417208DF80000697C0020B4
:10438000CDF80200ADF80600022934D003292FD061
:10439000FFDF0BA9684609F05DFE0028CED16068FA
:1043A00001F0B0FD207870B101208DF80200F01C02
:1043B00001F0B5FD4E208DF800000BA9684609F00C
:1043C00049FE00B1FFDF20782874FFF787F8608886
:1043D00098B1E88180B2ADF8020030208DF800007D
:1043E0000BA9684609F036FE00B1FFDF0020A5E703
:1043F0008DF80700CDE74020FAE74FF46170E8E759
:1044000010B504460FF052FF20B9606838B10FF0C4
:104410006BFF08B1102010BD606801F080FDCA4834
:10442000C1896180417C6170007C2070002010BDDA
:104430002DE9F0419CB0054600208DF864008DF810
:1044400060008DF830008DF868001E4614468846DE
:1044500028460FF052FF18B920460FF04EFF10B15A
:1044600010201CB0F5E455EA040018D01F270CAB4F
:1044700019AA414628460097FEF71BFF0028F0D1F5
:104480001AAB18AA314620460097FEF712FF002803
:10449000E7D19DF86000C00703D00A20E1E70720BC
:1044A000DFE701AF7DB11A208DF804008DF806809A
:1044B00042462946F81C1DF01FFB0DA901A809F072
:1044C000C9FD0028CDD17CB120208DF804008DF8E5
:1044D000066032462146F81C1DF00EFB0DA901A80E
:1044E00009F0B8FD0028BCD197499DF8300048700C
:1044F0000020B6E72DE9F0479CB08A464FF000084F
:1045000092A104468DF83480D1E90001CDE919016A
:1045100020460FF0A5FE90B92078012803D16068ED
:104520000FF09EFE58B9884D4FF00109287C40B12C
:10453000687C022805D160680FF0DFFE08B110200A
:104540001AE62878012801D0082015E607200CF08B
:1045500037FA18B9207878B101280DD0FEF780FD20
:1045600060B1608943F6E172A0F1200191422178A7
:104570000CD3012904D0B6E01220FDE51320FBE5A1
:1045800000287DD1A18900297AD109E0012907D02D
:104590006978C90704D0A189002971D0B4296FD8DE
:1045A000217831B1012908D0022904D0032967D12B
:1045B0000AE0002609E0022607E008B9A08908B150
:1045C000042609E0012607E00326287C50B1687C18
:1045D000022807D1606828B10DA96068FEF7C6FE01
:1045E0000028ADD1207A30B1012806D0022806D0AB
:1045F000032878D105E0002704E0012702E0022724
:1046000000E003270EB1022E0ED16FB16879B8B366
:104610006878800702D043F20120ADE5022E03D175
:10462000022F60D0032F5ED0207808B1012806D178
:10463000504600F06BFB002887D185F802A01820B7
:104640008DF838006089ADF83A006089ADF83C001B
:104650008DF83E600DF13F00FEF7ABFE00B1FFDFCD
:104660009DF834008DF840002078012806D0287C81
:1046700068B1687C02280AD1606840B1606800E0D7
:1046800031E050F8011FCDF84110808802E040462B
:10469000CDF84180ADF845008DF84870A07BC0F39F
:1046A0004002014662F35F01C0F3800041EA8000EE
:1046B00019A9085C8DF84700A8B169460EA809F051
:1046C000C9FC0028A9D11B208DF838008DF83A903C
:1046D00069460EA809F0BEFC00289ED19DF8010095
:1046E0001B281CD101E0072046E5052E0CD2DFE88F
:1046F00006F0030308080300A87800F017FB032066
:1047000000E0022000F0EEFA012E0AD0A08940B1AC
:1047100000228300114610460FF0ACFC08B10320C4
:104720002AE5002028E52DE9FC4107460D46032631
:1047300008460FF0E2FD00286CD13846FEF7DAFC9F
:1047400004000CD0207805E0CC0100200706050409
:1047500003020100222805D20820BDE8FC8143F2B3
:104760000200FAE7A07F00F0030C2DB12946604655
:10477000FEF74DFD0600F0D1BCF1010F05D0BCF1F4
:10478000020F18D0FFDF3046E7E7A07D2946022858
:1047900001D011B107E01120DFE76846FCF7F2FE17
:1047A0000028DAD16946384606F075FD0600EAD1E0
:1047B0000120A075E7E7A07D032803D1FE48807C97
:1047C000C00701D035B30EE025B1A07F40071FD44C
:1047D000002100E00121384606F07DFD0600D2D11F
:1047E000A075002DCFD02A4621463846FEF759FE47
:1047F00006461128C7D1A07F4107C4D4296844F8D0
:104800000E1F6968616040F0040020740026BAE75A
:104810001126B8E71020A0E770B50C460546FEF754
:1048200069FC010005D022462846BDE87040FEF72D
:1048300016BE43F2020070BD00B597B043218DF85B
:1048400000108DF802000BA9684609F003FC17B0B0
:1048500000BD0123FEF751BC00231A461946FEF79E
:104860004CBC30B597B004460FF0FAFC10B11020E4
:1048700017B030BD204600F095FA0028F8D1CE4D93
:10488000E878112801D00820F2E7FEF7E9FBE0B351
:104890002078800701D56879C0B31D208DF800000D
:1048A0002078022200F001008DF802006088ADF847
:1048B0000400A088ADF806002078C0F3400102EAA9
:1048C000500001438DF8091002A8FEF772FD00B1F7
:1048D000FFDF0BA9684609F0BDFB0028C8D11E20E8
:1048E0008DF8000001208DF8020000208DF80300F3
:1048F0000BA9684609F0AEFB0028B9D1E08800F0AA
:104900006DFA0400B4D1122001E004E005E0FEF7E6
:104910008DFB2046ACE71320AAE70720A8E72DE986
:10492000F043A54E074697B0F078994615460C46D9
:10493000122803D1FFF7CFF9002816D120460FF037
:104940008FFCE8BB28460FF08BFCC8BB204600F06C
:1049500029FA002809D129460220FEF758FC002830
:1049600003D1F078112803D0082017B0BDE8F083F8
:1049700006200CF025F850B12078800701D5707919
:1049800038B1FEF76DFB022805D21320EDE71220A7
:10499000EBE70720E9E721208DF800006088ADF8FB
:1049A0000200A088ADF8040020784FF00008C0F3A2
:1049B00040008DF80600207880071FD4384600E0BC
:1049C00002E00FF04DFC08B11020CEE73878400827
:1049D00008D0012809D0022807D0032805D043F2C7
:1049E0000220C2E78DF8078002E001208DF8070061
:1049F00057F8010F0290B888ADF80C000DF10E00C9
:104A0000FEF7D7FC08B10320AFE72888ADF8100007
:104A10006888ADF81200A888ADF81400E888ADF8F1
:104A20001600ADF81880ADF81A80484600F06EF90F
:104A300000289AD186F804900BA9684609F00AFB71
:104A4000002892D1307900F071F9E08800F0C6F9C1
:104A500004008AD11320FEF7E9FA204685E730B535
:104A6000054697B00C4608460FF020FC08B1102010
:104A7000FEE62846FEF73EFB38B10178222902D334
:104A8000807F800604D40820F2E643F20200EFE6BD
:104A900013208DF80000ADF802500BA9684609F00C
:104AA000D9FA0028E4D19DF932107F2901D0217074
:104AB000DEE60520DCE630B5054697B00C46084634
:104AC0000FF0CEFB08B11020D2E62846FEF712FB0D
:104AD00020B10078222804D20820C9E643F202005F
:104AE000C6E63548807C400701D51120C0E6207815
:104AF000800802D16078800801D00720B8E65620EF
:104B00008DF80000ADF8025020788DF80400607830
:104B10008DF805000BA9684609F09CFAA8E62DE976
:104B2000F041B0B014460D460646FEF7E3FA070022
:104B300006D03878222806D2082030B0BDE8F081AF
:104B400043F20200F9E728460FF0D7FB30B94FF0E7
:104B500000084CB120460FF0C7FB08B11020ECE76D
:104B6000C4F80080A4F804801348807C800701D535
:104B70001120E2E797F8220004F0ACF98088011DCB
:104B8000FB2901D2001D00E0FB20C0B26A46294685
:104B900000F0E3F82C22094904A81CF0F2FFBDF84C
:104BA0000200ADF81400BDF80600ADF81600ADF82F
:104BB0001260BDF8000003E0CC010020A01F02003D
:104BC000ADF81800BDF80400ADF81A001AA904A841
:104BD00009F040FA00B1FFDFBDF86C00ADF8080045
:104BE000BDF86E00ADF80A00BDF87000BDF8721097
:104BF000BDF800200844ADF80C0007201B2A9CD308
:104C0000BDF802101B2998D3FB2A96D8FB2994D80B
:104C100006278A4210D10121104600F05AF8BDF84B
:104C20000410884208D1BDF80200012100F051F8BB
:104C3000BDF80610884201D038467EE7BDF808006E
:104C400028B9BDF80A1011B9BDF80C1029B35DB12F
:104C5000298849B1698839B124B102982060BDF82A
:104C60000C00A080132068E7BDF80010BDF80A20F2
:104C7000081A80B2ADF80000BDF80210891AADF82C
:104C80000210012100F025F8ADF80400BDF8020083
:104C9000012100F01EF8ADF806002C226B490FA888
:104CA0001CF06FFFADF83E60BDF80200ADF84000AB
:104CB000BDF80600ADF84200BDF80000ADF84400B4
:104CC000BDF80400ADF8460025A90FA809F0C2F907
:104CD00033E7022903D0C000703080B270478000F3
:104CE0003C30FAE730B55A4D040008D0012C04D00E
:104CF000022C06D0032C04D0FFDF2C7030BDFFDF68
:104D0000FBE728780128F8D0FFDFF6E710B5044666
:104D100004F0E0F830B1407830B1204604F0EEFB0A
:104D2000002010BD072010BD122010BD10B504F0EA
:104D3000D1F8040000D1FFDF607800B9FFDF6078B0
:104D4000401E607010BD10B504F0C4F8040000D11E
:104D5000FFDF6078401C607010BD10B5144631B1A3
:104D60000A68226049686160218839B107E02080C3
:104D700060800121FFF7ADFFA0800DE020806188F9
:104D800001B96080A08820B920880121FFF7A1FF28
:104D9000A080E088002804D160880121FFF799FFF6
:104DA000E08010BD418843F6FD730A1F9A4209D284
:104DB0008088042806D3B0F5804F03D8884201D8F4
:104DC00000207047072070470278520804D0012A5B
:104DD00002D043F202207047FEF7C8BA10B548B1BE
:104DE00083000022114606200FF044F9062801D066
:104DF000032010BD002010BD70B50C0006460DD07C
:104E0000FEF778F9050000D1FFDFA6802889208110
:104E1000288960816889A081A889E08170BD10B56A
:104E200000231A4603E0845C2343521CD2B28A4218
:104E3000F9D30BB1002010BD012010BD00B5012831
:104E400003D0022801D0FFDF002000BDF81F0200C0
:104E5000CC01002010B504460FF002FA08B1102072
:104E600010BD2078C0F30210042807D86078072806
:104E700004D3A178102901D8814201D2072010BDA6
:104E8000E078410706D421794A0703D4000701D40A
:104E9000080701D5062010BD002010BD10B51378FD
:104EA0005C08C37F64F30003C3771478A40864F339
:104EB0004103C3771078C309487863F34100487011
:104EC00013781C090B7864F347130B701378DB0815
:104ED00063F3000048705078487110BD10B5C47875
:104EE0000B7864F300030B70C478640864F3410327
:104EF0000B70C478A40864F382030B70C478E408D0
:104F000064F3C3030B700379117863F3000111702C
:104F100003795B0863F34101117003799B0863F324
:104F2000820111700079C00860F3C301117010BDD7
:104F300070B514460D46064604F037FA80B1017884
:104F4000182221F00F01891C21F0F001A03100F896
:104F5000081B21461CF015FEBDE8704004F028BA7D
:104F600029463046BDE870401322FEF778BA10B5E6
:104F7000FE4C94F8300000280CD104F120014FF6CB
:104F8000FF72A1F110000DF04DF900B1FFDF01201B
:104F900084F8300010BD2DE9F047064608A8894680
:104FA00090E830041F469046142128461CF03DFE30
:104FB0000021CAF80010B8F1000F03D0B9F1000FBA
:104FC00003D114E03878C00711D020680FF06EF9D3
:104FD000F0BBB8F1000F07D12068123028602068BC
:104FE000143068602068A8602168CAF8001038781A
:104FF000800728D560680FF077F948BBB9F1000F3A
:105000002DD0FFF720F80168C6F8C8118188A6F8EE
:10501000CC11807986F8CE01FFF7A9FFDFF84C8329
:1050200008F12008C5F80C80626862B196F8C801E2
:1050300006F2C91140081032FEF7E7F91022414686
:1050400060681CF059FD3878400712D5A06800E070
:1050500002E00FF02BF950B11020BDE8F087606836
:105060000028F9D0E8606068C6F8C401EBE7A068E2
:1050700028610020F1E730B5054608780C4620F09D
:105080000F00401C20F0F0011031217000206070F2
:1050900095F8230030B104280FD0052811D0062838
:1050A00014D0FFDF20780121B1EB101F04D295F856
:1050B000200000F01F00607030BD21F0F0002030B3
:1050C00002E021F0F00030302070EBE721F0F0003A
:1050D0004030F9E710B510B190F8BD4044B1A34895
:1050E00090F83540002064B108601060186010BD71
:1050F00000F1BC040C6000F1E40100F58670116061
:10510000F4E79A4C34340C60EFE700B58BB007231A
:10511000CDE902128DF801300191944900236431E8
:105120000591099301468DF8103068460DF052F84C
:10513000002800D0FFDF0BB000BD70B590B0154661
:105140000C4602220646ADF80820092103AB04F004
:105150006EFF0490002812D00C208DF8010004206E
:105160008DF8040004F59A74099605948DF818508A
:105170000AA968460DF02EF800B1FFDF012010B03B
:1051800070BD30B597B00C462C251A998DF800509B
:10519000ADF80200B3B11868019058680290ADF8FC
:1051A0000C2010220DF10E001CF0A6FC0BA9684685
:1051B00008F050FF002803D1A17F41F01001A17732
:1051C00017B030BD00200190E8E72DE9F047064612
:1051D000808A8CB080B20D468246FDF78BFF044674
:1051E000624F3078283FDFF884914FF00008112893
:1051F00073D2DFE800F072F1350936777E98A7F2B6
:10520000EFEEEDEC5BECEC00A07F00F0030001287A
:1052100006D0002150460BF021FC050003D101E02F
:105220000121F7E7FFDF99F85C10C90702D0D9F830
:1052300060000BE0032105F121000EF0E2FCD5F83F
:1052400021004B49B0FBF1F201FB1200C5F821002F
:105250007068A867B068E8672078252800D0FFDF6D
:10526000ECE0A07F00F00300012806D000215046AA
:105270000BF0F4FB060003D101E00121F7E7FFDFAB
:105280003078810702D52178252904D040F001002B
:1052900030700CB0E1E60220287096F820002871EA
:1052A00006F121003136C5E90206F2E7A07F00F0E1
:1052B0000300012806D0002150460BF0CFFB04006C
:1052C00003D101E00121F7E7FFDF2078C10605D512
:1052D0001320287041346C60DBE7BEE140F0080029
:1052E0002070D6E72148082128380EF08AFC0320D8
:1052F00016E02A208DF8000010220DF102007168DE
:105300001CF0FAFB10220DF11200B1681CF0F4FB46
:10531000164968462C3908F09DFE00B1FFDF0420D5
:1053200028706F60B5E7E07FC00600D5FFDF307CF6
:10533000B28800F001030CB05046BDE8F0470921E7
:1053400005F00BBD04B9FFDF716821B1102204F133
:1053500024001CF0D1FB28212046FDF703FFA07F8D
:1053600000F00300022814D104E00000180200201D
:1053700040420F0004F12400002300901A46214609
:105380005046FFF7FEFE112807D029212046FDF7E1
:10539000E9FE307A84F820007BE7A07F000700D583
:1053A000FFDF14F81E0F40F008002070A4F81680EC
:1053B000C4F81880C4F81C806178084661F3820044
:1053C000410861F3C3006070307AE07061E727E064
:1053D0003FE17AE051E000E037E0A07F00F0030019
:1053E000012806D0002150460BF038FB040003D101
:1053F00001E00121F7E7FFDF022104F189000EF04F
:1054000000FC1020287004F5E4706860B4F889107E
:10541000298204F18000FD496861C5E9029138E7FD
:10542000A07F00F00300012805D0002150460BF0BA
:1054300015FB18B901E00121F8E7FFDF0CB0324697
:1054400021465046BDE8F04772E504B9FFDF2078F9
:105450002128A1D93079012803D1E07F40F0100044
:10546000E077324621465046FFF762FD0CB02046F9
:10547000BDE8F0472321FDF775BE3279AA8005F11A
:1054800008030921504604F0D2FDE86010B1112054
:105490002870FEE6A07F00F00300012806D000215E
:1054A00050460BF0DBFA040003D101E00121F7E7DD
:1054B000FFDF04F1660102231022081F0BF03BF905
:1054C00080F8008031794170E3E6A07F00F00300AE
:1054D000012806D0002150460BF0C0FA050003D188
:1054E00001E00121F7E7FFDF95F8880000F00300F5
:1054F000012879D1A07F00F00307E07FC0F34006C8
:1055000016B1012F04D02BE095F8A400C0072AD0D3
:10551000D5F8C00118B395F88720017C62F38701A4
:105520000174E27FD5F8C00162F341010174D5F83E
:10553000C00166F300010174AEB1D5F8C0011022BC
:1055400004F124018C351CF0D7FA287E40F00100CC
:105550002876287820F0010005F88C0900E016B1C3
:10556000022F04D02CE095F88C00C00726D0D5F887
:10557000BC1119B395F88720087C62F38700087482
:10558000E27FD5F8BC1162F341000874D5F8BC1174
:1055900066F3000008748EB1D5F8BC01102204F146
:1055A00024018C351CF0A8FA287840F0010005F899
:1055B000180B287820F0010005F8A409022F44D028
:1055C0005FF0000000EB400005EBC00090F88C009D
:1055D000800709D595F88000D5F8C421400805F169
:1055E00081011032FDF711FF05208DF8000095F8BC
:1055F00088006A4600F003008DF8010095F88C10D1
:105600008DF8021095F8A4008DF80300214650464D
:1056100001F046FA2078252805D0212807D0FFDFA1
:105620002078222803D922212046FDF79BFDA07F68
:1056300000F0030001280AD0002150460BF020FAA8
:1056400000283FF432AEFFDF23E60120BAE7012154
:10565000F3E7716881F801801BE6FFDF19E670B59A
:105660006A4C0025103C04F85C5F65600CF07FFD1F
:105670006649A1F1100003F02AFE04F82C5C062014
:10568000607262487C3020615030A0611030E0616F
:1056900070BD70B50D46FDF72DFD040000D1FFDF94
:1056A0004FF4E87128461CF0C0FA5848543068613D
:1056B00004F124002861A07F00F00300012809D034
:1056C0005FF0020105F59A700CF052FD002800D041
:1056D000FFDF70BD0121F5E70A46014602F59A7029
:1056E0000CF066BD70B5054640689CB0017809298C
:1056F00006D00C2937D00D2933D0FFDF1CB070BD88
:1057000046883046FDF7F6FC040000D1FFDF207824
:105710002128F3D0282821D1686802210C3001F01B
:10572000B4F9D8B168680821001D01F0AEF9A8B13C
:105730002D208DF80000ADF80260102204F1240144
:1057400001A81CF0D9F90BA9684608F083FC00B148
:10575000FFDF29212046FDF705FDCFE703F028FEF6
:10576000CCE701218171686886883046FDF7C2FC6C
:10577000040000D1FFDFA07F00F00301022902D165
:1057800020F01000A077207821280AD0686881795D
:1057900009B1807880B1A07F00F0030002285ED0BC
:1057A000FFDFA07F00F003000228A7D1FDF7B3FEC2
:1057B0000028A3D0FFDFA1E703F0FAFDE07FC107D7
:1057C00028D0800705D594F8200000F01F0010288D
:1057D0001ED0052084F82300207829281CD02428F6
:1057E000DFD1314605200EF0EFFC22212046FDF7E7
:1057F000B9FCA07F00F0030001282ED00021304624
:105800000BF03EF90028CCD0FFDFCAE728020020C9
:105810000620DFE70420DDE7A07F00F00300012879
:1058200006D0002130460BF019F9050003D101E044
:105830000121F7E7FFDF25212046FDF793FC0F202C
:105840008DF8580016A905F59A700CF0A8FC0228EE
:10585000A7D00028A5D0FFDFA3E70121CFE703F001
:10586000A7FD9EE72DE9F0438BB099461546884683
:105870000646FDF73FFC04004FD0207822284CD389
:1058800023284AD0E07FC00647D4A07F00F0030061
:10589000012806D0002130460BF0E0F8070002D0C6
:1058A0000CE00121F7E7A07F00F00300012805D1FB
:1058B0000121002230460BF0C8F8074601AB02AACE
:1058C00003A93846FFF706FC039800B9FFDF4FB184
:1058D000039807F59A7787612078222806D0242834
:1058E00004D007E003990020886103E025212046C9
:1058F000FDF738FC03980B21417046628580C0E9B2
:105900000289029901610199416104A90CF062FCCC
:10591000022802D0002800D0FFDF0BB0BDE8F083E2
:1059200070B586B00546FDF7E5FB017822291CD944
:10593000807F00F00300012806D0002128460BF0EC
:105940008DF8040030D101E00121F7E7FFDF2BE003
:10595000B4F8620004F1660630440178427831B14F
:1059600021462846FFF7E9FBB8B906B070BDADF88F
:1059700004200921284602AB04F059FB03900028BB
:10598000F3D011208DF80000694604F59A700CF0F0
:1059900006FC022801D000B1FFDF022310223146AD
:1059A00004F162000AF0FDFEB4F864000028CFD1D3
:1059B000DBE710B586B00446FDF79CFB0178222991
:1059C00019D9807F00F00300012806D0002120466D
:1059D0000BF044F8040003D101E00121F7E7FFDFF9
:1059E00012208DF80000694604F59A700CF0D7FB80
:1059F000002800D0FFDF06B010BD2DE9F05F05469E
:105A00000C4600270078904601093E46BA4604F14C
:105A1000080B02297ED0072902D00A2909D142E0C9
:105A200068680178092905D00C292CD00D292AD0C5
:105A3000FFDFB2E114271C26002C6CD04088A08028
:105A4000FDF758FB5FEA000900D1FFDF99F8170066
:105A50005A46400809F11801FDF7D7FC68688089AB
:105A6000208269684868C4F812008868C4F8160083
:105A7000A07E20F0060040F00100A07699F81E00FC
:105A800040F040014DE01A270A26002CD5D080882E
:105A9000A080FDF72FFB050000D1FFDF5946284607
:105AA000FFF7E9FA79E10CB1A88BA080287A0D28DC
:105AB0007ED006DC01287CD0022808D0032804D13F
:105AC00035E00F2876D0102875D0FFDF65E11E275E
:105AD0000926002CB1D0A088FDF70CFB5FEA000975
:105AE00000D1FFDF287B00F003000128207A1BD0C3
:105AF00020F001002072297B890861F341002072A7
:105B0000297BC90861F382002072297B090961F3AE
:105B1000C30001E036E1E9E0207299F81E0040F090
:105B2000800189F81E1038E140F00100E2E71327F8
:105B30000D26002CAAD0A088FDF7DCFA8146807FD4
:105B400000F00300012806D00021A0880AF086FF9B
:105B5000050003D101E00121F7E7FFDF99F81E00FE
:105B600000F00302012A59D0E86F817801F00301A7
:105B70000129217A54D021F00101217283789B08F8
:105B800063F3410121728378DB0863F382012172A0
:105B900083781B0963F3C3012172037863F3061151
:105BA0002172437863F3C711217284F809A003E0DE
:105BB0005EE0A4E08BE09CE0C178A172012A32D0C3
:105BC0004279E17A62F30001E1724279520862F3AC
:105BD0004101E1724279920862F38201E1724279F5
:105BE000D20862F3C301E1720279217B62F3000102
:105BF00021730279520862F34101217302799208FC
:105C000062F3820121730079C00860F3C30121733C
:105C100099F80000232859D9262168E0A86FA4E745
:105C200041F00101A9E70279E17A62F30001E17232
:105C30000279520862F34101E1720279920862F33B
:105C40008201E1720279D20862F3C301E172427902
:105C5000217B62F3000121734279520862F3410112
:105C600021734279920862F3820121734079CBE774
:105C700018271026D4B3A088FDF73CFA8346807F0E
:105C800000F00300012807D00021A0880AF0E6FEFA
:105C90005FEA000903D101E00121F6E7FFDFE868D0
:105CA000A06099F8000040F0040189F8001099F80C
:105CB0000100800708D5012020739BF800002328ED
:105CC0006BD9272158464FE084F80CA065E01527D2
:105CD0000F265CB1A088FDF70DFA814606225946D1
:105CE000E86808F01FFA0120A0739BE03FE04846F7
:105CF0003AE016270926D4B3287B20724DE0287B92
:105D000019270E269CB3C4F808A0A4F80CA00128FB
:105D100007D0022805D0032805D0042803D0FFDFD0
:105D20000DE0207207E0697B042801F00F0141F0CB
:105D3000800121721CD0607A20F003006072A0887C
:105D4000FDF7D8F905460078212826D0232800D071
:105D5000FFDFA87F00F00300012811D00021A088F8
:105D60000AF08EFE22212846FDF7FCF915E004E03A
:105D7000607A20F00300401CE0E7A8F8006011E022
:105D80000121ECE70CB16888A080287A03282BD089
:105D900004280AD005284BD0FFDFA8F800600CB11A
:105DA000278066800020BDE8F09F15270F26002C75
:105DB000E3D0A088FDF79EF9807F00F00300012862
:105DC00006D00021A0880AF049FE050003D101E0B9
:105DD0000121F7E7FFDFD5F821000622594608F038
:105DE000A1F984F80EA0D8E717270926002CC4D003
:105DF000A088FDF77FF98146807F00F0030001282D
:105E000006D00021A0880AF029FE050003D101E098
:105E10000121F7E7FFDF6878800701D5022000E065
:105E20000120207299F800002328B6D927215EE7C7
:105E300019270E26002CA0D0A088FDF75BF95FEA99
:105E4000000900D1FFDFC4F808A0A4F80CA084F872
:105E500008A0A07A40F00300A07299F81F1061F327
:105E60008200A07299F81F10C1F34002114205D0C0
:105E700099F8201001F01F0110292CD020F0080003
:105E8000A07299F81F004108607A61F3C300607244
:105E9000697A01F003010129A5D140F00400607284
:105EA00099F81E00E97A00F00300012816D0607B03
:105EB00061F300006073AA7A217B62F30001217311
:105EC000EA7A520862F341006073A87A400860F3EE
:105ED0004101217361E740F00800D1E7207B61F3C5
:105EE00000002073AA7A617B62F300016173EA7A91
:105EF000520862F341002073A87A400860F3410120
:105F000061734AE710B5FE4C30B10146102204F12E
:105F100020001BF0F1FD012084F8300010BD10B509
:105F20000446FFF724F8F64920461022BDE8104049
:105F300020311BF0E1BD70B5F14D06004FF00004BB
:105F400012D00EF08DF908B110240BE00621304676
:105F500008F0CFF8411C04D02866012085F85C00C9
:105F600000E00724204670BD0020F7E7007810F01D
:105F70000F0204D0012A05D0022A0CD110E000093A
:105F800009D10AE00009012807D0022805D003281A
:105F900003D0042801D00720704708700020704704
:105FA0000620704705282AD2DFE800F003070F1704
:105FB0001F00087820F0FF001EE0087820F00F0096
:105FC000401C20F0F000103016E0087820F00F00A0
:105FD000401C20F0F00020300EE0087820F00F0088
:105FE000401C20F0F000303006E0087820F00F0070
:105FF000401C20F0F000403008700020704707205F
:1060000070472DE9F041804688B00D4600270846CC
:106010000EF073F9A8B94046FDF76CF8040003D000
:106020002078222815D104E043F2020008B0BDE830
:10603000F08145B9A07F010603D500F003000228D6
:1060400001D01020F2E7A07FC10601D4010702D5DC
:106050000DB10820EAE7E17FC90601D50D20E5E78B
:1060600000F00300022805D125B12846FEF7F2FE14
:106070000700DBD1A07F00F00300012806D000213B
:1060800040460AF0EBFC060002D00DE00121F7E7E4
:10609000A07F00F0030001280CD000210022404620
:1060A0000AF0D3FC060007D0A07F00F0030002280E
:1060B00004D009E00121F1E70420B7E725B12A4621
:1060C00031462046FEF7EAFE07AB1A4669463046DF
:1060D000FFF700F8009800B9FFDF00990C20487026
:1060E00006F59A70C1F82480486100200881A07FDD
:1060F00000F00300012828D0EDB302200871301D04
:1061000088613078400908777078C0F3400048779C
:10611000287800F00102887F62F301008877E27F2F
:1061200062F382008877E27F520862F3C3008877C7
:10613000727862F304108877A878C87701F1210299
:1061400028462031FEF7CAFE22E001200871287897
:1061500000F00102087E62F3010008762A785208F6
:1061600062F3820008762A78920862F3C300087608
